{
	"data": {
		"bytecode": {
			"linkReferences": {},
			"object": "608060405234801561000f575f5ffd5b50335f5f6101000a81548173ffffffffffffffffffffffffffffffffffffffff021916908373ffffffffffffffffffffffffffffffffffffffff16021790555061005d61006260201b60201c565b610a72565b600160405161007090610638565b90815260200160405180910390206040518060a001604052806040518060400160405280600781526020017f416c627566696e000000000000000000000000000000000000000000000000008152508152602001601a81526020016040518060400160405280600381526020017f73756e00000000000000000000000000000000000000000000000000000000008152508152602001600181526020016040518060400160405280600881526020017f62672d7768697465000000000000000000000000000000000000000000000000815250815250908060018154018082558091505060019003905f5260205f2090600502015f909190919091505f820151815f01908161017f9190610889565b5060208201518160010155604082015181600201908161019f9190610889565b506060820151816003015560808201518160040190816101bf9190610889565b50505060016040516101d0906109a2565b90815260200160405180910390206040518060a001604052806040518060400160405280600981526020017f566974616d696e204400000000000000000000000000000000000000000000008152508152602001601a81526020016040518060400160405280600381526020017f73756e00000000000000000000000000000000000000000000000000000000008152508152602001600281526020016040518060400160405280600b81526020017f62672d677261792d363030000000000000000000000000000000000000000000815250815250908060018154018082558091505060019003905f5260205f2090600502015f909190919091505f820151815f0190816102df9190610889565b506020820151816001015560408201518160020190816102ff9190610889565b5060608201518160030155608082015181600401908161031f9190610889565b505050600160405161033090610a00565b90815260200160405180910390206040518060a001604052806040518060400160405280600781526020017f4f6d6567612033000000000000000000000000000000000000000000000000008152508152602001601a81526020016040518060400160405280600481526020017f6d6f6f6e000000000000000000000000000000000000000000000000000000008152508152602001600281526020016040518060400160405280600b81526020017f62672d677261792d363030000000000000000000000000000000000000000000815250815250908060018154018082558091505060019003905f5260205f2090600502015f909190919091505f820151815f01908161043f9190610889565b5060208201518160010155604082015181600201908161045f9190610889565b5060608201518160030155608082015181600401908161047f9190610889565b505050600160405161049090610a5e565b90815260200160405180910390206040518060a001604052806040518060400160405280600481526020017f49726f6e000000000000000000000000000000000000000000000000000000008152508152602001601281526020016040518060400160405280600381526020017f73756e00000000000000000000000000000000000000000000000000000000008152508152602001600181526020016040518060400160405280600b81526020017f62672d677261792d363030000000000000000000000000000000000000000000815250815250908060018154018082558091505060019003905f5260205f2090600502015f909190919091505f820151815f01908161059f9190610889565b506020820151816001015560408201518160020190816105bf9190610889565b506060820151816003015560808201518160040190816105df9190610889565b505050565b5f81905092915050565b7f4d6f6e20323100000000000000000000000000000000000000000000000000005f82015250565b5f6106226006836105e4565b915061062d826105ee565b600682019050919050565b5f61064282610616565b9150819050919050565b5f81519050919050565b7f4e487b71000000000000000000000000000000000000000000000000000000005f52604160045260245ffd5b7f4e487b71000000000000000000000000000000000000000000000000000000005f52602260045260245ffd5b5f60028204905060018216806106c757607f821691505b6020821081036106da576106d9610683565b5b50919050565b5f819050815f5260205f209050919050565b5f6020601f8301049050919050565b5f82821b905092915050565b5f6008830261073c7fffffffffffffffffffffffffffffffffffffffffffffffffffffffffffffffff82610701565b6107468683610701565b95508019841693508086168417925050509392505050565b5f819050919050565b5f819050919050565b5f61078a6107856107808461075e565b610767565b61075e565b9050919050565b5f819050919050565b6107a383610770565b6107b76107af82610791565b84845461070d565b825550505050565b5f5f905090565b6107ce6107bf565b6107d981848461079a565b505050565b5b818110156107fc576107f15f826107c6565b6001810190506107df565b5050565b601f82111561084157610812816106e0565b61081b846106f2565b8101602085101561082a578190505b61083e610836856106f2565b8301826107de565b50505b505050565b5f82821c905092915050565b5f6108615f1984600802610846565b1980831691505092915050565b5f6108798383610852565b9150826002028217905092915050565b6108928261064c565b67ffffffffffffffff8111156108ab576108aa610656565b5b6108b582546106b0565b6108c0828285610800565b5f60209050601f8311600181146108f1575f84156108df578287015190505b6108e9858261086e565b865550610950565b601f1984166108ff866106e0565b5f5b8281101561092657848901518255600182019150602085019450602081019050610901565b86831015610943578489015161093f601f891682610852565b8355505b6001600288020188555050505b505050505050565b7f53756e20323000000000000000000000000000000000000000000000000000005f82015250565b5f61098c6006836105e4565b915061099782610958565b600682019050919050565b5f6109ac82610980565b9150819050919050565b7f53617420313900000000000000000000000000000000000000000000000000005f82015250565b5f6109ea6006836105e4565b91506109f5826109b6565b600682019050919050565b5f610a0a826109de565b9150819050919050565b7f46726920313800000000000000000000000000000000000000000000000000005f82015250565b5f610a486006836105e4565b9150610a5382610a14565b600682019050919050565b5f610a6882610a3c565b9150819050919050565b6117d680610a7f5f395ff3fe608060405234801561000f575f5ffd5b5060043610610055575f3560e01c806336a48ee5146100595780636ca070561461008d5780638da5cb5b146100bd578063cfb2749d146100db578063f2fde38b146100f7575b5f5ffd5b610073600480360381019061006e9190610b4e565b610113565b604051610084959493929190610c17565b60405180910390f35b6100a760048036038101906100a29190610c7d565b610309565b6040516100b49190610e57565b60405180910390f35b6100c5610546565b6040516100d29190610eb6565b60405180910390f35b6100f560048036038101906100f09190611096565b61056a565b005b610111600480360381019061010c9190611136565b61074c565b005b6001828051602081018201805184825260208301602085012081835280955050505050508181548110610144575f80fd5b905f5260205f2090600502015f9150915050805f0180546101649061118e565b80601f01602080910402602001604051908101604052809291908181526020018280546101909061118e565b80156101db5780601f106101b2576101008083540402835291602001916101db565b820191905f5260205f20905b8154815290600101906020018083116101be57829003601f168201915b5050505050908060010154908060020180546101f69061118e565b80601f01602080910402602001604051908101604052809291908181526020018280546102229061118e565b801561026d5780601f106102445761010080835404028352916020019161026d565b820191905f5260205f20905b81548152906001019060200180831161025057829003601f168201915b5050505050908060030154908060040180546102889061118e565b80601f01602080910402602001604051908101604052809291908181526020018280546102b49061118e565b80156102ff5780601f106102d6576101008083540402835291602001916102ff565b820191905f5260205f20905b8154815290600101906020018083116102e257829003601f168201915b5050505050905085565b606060018260405161031b91906111f8565b9081526020016040518091039020805480602002602001604051908101604052809291908181526020015f905b8282101561053b578382905f5260205f2090600502016040518060a00160405290815f820180546103789061118e565b80601f01602080910402602001604051908101604052809291908181526020018280546103a49061118e565b80156103ef5780601f106103c6576101008083540402835291602001916103ef565b820191905f5260205f20905b8154815290600101906020018083116103d257829003601f168201915b50505050508152602001600182015481526020016002820180546104129061118e565b80601f016020809104026020016040519081016040528092919081815260200182805461043e9061118e565b80156104895780601f1061046057610100808354040283529160200191610489565b820191905f5260205f20905b81548152906001019060200180831161046c57829003601f168201915b50505050508152602001600382015481526020016004820180546104ac9061118e565b80601f01602080910402602001604051908101604052809291908181526020018280546104d89061118e565b80156105235780601f106104fa57610100808354040283529160200191610523565b820191905f5260205f20905b81548152906001019060200180831161050657829003601f168201915b50505050508152505081526020019060010190610348565b505050509050919050565b5f5f9054906101000a900473ffffffffffffffffffffffffffffffffffffffff1681565b5f5f9054906101000a900473ffffffffffffffffffffffffffffffffffffffff1673ffffffffffffffffffffffffffffffffffffffff163373ffffffffffffffffffffffffffffffffffffffff16146105f8576040517f08c379a00000000000000000000000000000000000000000000000000000000081526004016105ef90611258565b60405180910390fd5b60018260405161060891906111f8565b90815260200160405180910390205f6106219190610904565b5f5f90505b81518110156106f15760018360405161063f91906111f8565b90815260200160405180910390208282815181106106605761065f611276565b5b6020026020010151908060018154018082558091505060019003905f5260205f2090600502015f909190919091505f820151815f0190816106a19190611443565b506020820151816001015560408201518160020190816106c19190611443565b506060820151816003015560808201518160040190816106e19190611443565b5050508080600101915050610626565b507fc2449eda7f6620ae8ff0183b4dab7842c5427052d7916956e7e9b252f7d51e068260018460405161072491906111f8565b9081526020016040518091039020604051610740929190611703565b60405180910390a15050565b5f5f9054906101000a900473ffffffffffffffffffffffffffffffffffffffff1673ffffffffffffffffffffffffffffffffffffffff163373ffffffffffffffffffffffffffffffffffffffff16146107da576040517f08c379a00000000000000000000000000000000000000000000000000000000081526004016107d190611258565b60405180910390fd5b5f73ffffffffffffffffffffffffffffffffffffffff168173ffffffffffffffffffffffffffffffffffffffff1603610848576040517f08c379a000000000000000000000000000000000000000000000000000000000815260040161083f90611782565b60405180910390fd5b8073ffffffffffffffffffffffffffffffffffffffff165f5f9054906101000a900473ffffffffffffffffffffffffffffffffffffffff1673ffffffffffffffffffffffffffffffffffffffff167f8be0079c531659141344cd1fd0a4f28419497f9722a3daafe3b4186f6b6457e060405160405180910390a3805f5f6101000a81548173ffffffffffffffffffffffffffffffffffffffff021916908373ffffffffffffffffffffffffffffffffffffffff16021790555050565b5080545f8255600502905f5260205f20908101906109229190610925565b50565b5b80821115610972575f5f82015f61093d9190610976565b600182015f9055600282015f6109539190610976565b600382015f9055600482015f6109699190610976565b50600501610926565b5090565b5080546109829061118e565b5f825580601f1061099357506109b0565b601f0160209004905f5260205f20908101906109af91906109b3565b5b50565b5b808211156109ca575f815f9055506001016109b4565b5090565b5f604051905090565b5f5ffd5b5f5ffd5b5f5ffd5b5f5ffd5b5f601f19601f8301169050919050565b7f4e487b71000000000000000000000000000000000000000000000000000000005f52604160045260245ffd5b610a2d826109e7565b810181811067ffffffffffffffff82111715610a4c57610a4b6109f7565b5b80604052505050565b5f610a5e6109ce565b9050610a6a8282610a24565b919050565b5f67ffffffffffffffff821115610a8957610a886109f7565b5b610a92826109e7565b9050602081019050919050565b828183375f83830152505050565b5f610abf610aba84610a6f565b610a55565b905082815260208101848484011115610adb57610ada6109e3565b5b610ae6848285610a9f565b509392505050565b5f82601f830112610b0257610b016109df565b5b8135610b12848260208601610aad565b91505092915050565b5f819050919050565b610b2d81610b1b565b8114610b37575f5ffd5b50565b5f81359050610b4881610b24565b92915050565b5f5f60408385031215610b6457610b636109d7565b5b5f83013567ffffffffffffffff811115610b8157610b806109db565b5b610b8d85828601610aee565b9250506020610b9e85828601610b3a565b9150509250929050565b5f81519050919050565b5f82825260208201905092915050565b8281835e5f83830152505050565b5f610bda82610ba8565b610be48185610bb2565b9350610bf4818560208601610bc2565b610bfd816109e7565b840191505092915050565b610c1181610b1b565b82525050565b5f60a0820190508181035f830152610c2f8188610bd0565b9050610c3e6020830187610c08565b8181036040830152610c508186610bd0565b9050610c5f6060830185610c08565b8181036080830152610c718184610bd0565b90509695505050505050565b5f60208284031215610c9257610c916109d7565b5b5f82013567ffffffffffffffff811115610caf57610cae6109db565b5b610cbb84828501610aee565b91505092915050565b5f81519050919050565b5f82825260208201905092915050565b5f819050602082019050919050565b5f82825260208201905092915050565b5f610d0782610ba8565b610d118185610ced565b9350610d21818560208601610bc2565b610d2a816109e7565b840191505092915050565b610d3e81610b1b565b82525050565b5f60a083015f8301518482035f860152610d5e8282610cfd565b9150506020830151610d736020860182610d35565b5060408301518482036040860152610d8b8282610cfd565b9150506060830151610da06060860182610d35565b5060808301518482036080860152610db88282610cfd565b9150508091505092915050565b5f610dd08383610d44565b905092915050565b5f602082019050919050565b5f610dee82610cc4565b610df88185610cce565b935083602082028501610e0a85610cde565b805f5b85811015610e455784840389528151610e268582610dc5565b9450610e3183610dd8565b925060208a01995050600181019050610e0d565b50829750879550505050505092915050565b5f6020820190508181035f830152610e6f8184610de4565b905092915050565b5f73ffffffffffffffffffffffffffffffffffffffff82169050919050565b5f610ea082610e77565b9050919050565b610eb081610e96565b82525050565b5f602082019050610ec95f830184610ea7565b92915050565b5f67ffffffffffffffff821115610ee957610ee86109f7565b5b602082029050602081019050919050565b5f5ffd5b5f5ffd5b5f5ffd5b5f60a08284031215610f1b57610f1a610efe565b5b610f2560a0610a55565b90505f82013567ffffffffffffffff811115610f4457610f43610f02565b5b610f5084828501610aee565b5f830152506020610f6384828501610b3a565b602083015250604082013567ffffffffffffffff811115610f8757610f86610f02565b5b610f9384828501610aee565b6040830152506060610fa784828501610b3a565b606083015250608082013567ffffffffffffffff811115610fcb57610fca610f02565b5b610fd784828501610aee565b60808301525092915050565b5f610ff5610ff084610ecf565b610a55565b9050808382526020820190506020840283018581111561101857611017610efa565b5b835b8181101561105f57803567ffffffffffffffff81111561103d5761103c6109df565b5b80860161104a8982610f06565b8552602085019450505060208101905061101a565b5050509392505050565b5f82601f83011261107d5761107c6109df565b5b813561108d848260208601610fe3565b91505092915050565b5f5f604083850312156110ac576110ab6109d7565b5b5f83013567ffffffffffffffff8111156110c9576110c86109db565b5b6110d585828601610aee565b925050602083013567ffffffffffffffff8111156110f6576110f56109db565b5b61110285828601611069565b9150509250929050565b61111581610e96565b811461111f575f5ffd5b50565b5f813590506111308161110c565b92915050565b5f6020828403121561114b5761114a6109d7565b5b5f61115884828501611122565b91505092915050565b7f4e487b71000000000000000000000000000000000000000000000000000000005f52602260045260245ffd5b5f60028204905060018216806111a557607f821691505b6020821081036111b8576111b7611161565b5b50919050565b5f81905092915050565b5f6111d282610ba8565b6111dc81856111be565b93506111ec818560208601610bc2565b80840191505092915050565b5f61120382846111c8565b915081905092915050565b7f4e4f545f4f574e455200000000000000000000000000000000000000000000005f82015250565b5f611242600983610bb2565b915061124d8261120e565b602082019050919050565b5f6020820190508181035f83015261126f81611236565b9050919050565b7f4e487b71000000000000000000000000000000000000000000000000000000005f52603260045260245ffd5b5f819050815f5260205f209050919050565b5f6020601f8301049050919050565b5f82821b905092915050565b5f600883026112ff7fffffffffffffffffffffffffffffffffffffffffffffffffffffffffffffffff826112c4565b61130986836112c4565b95508019841693508086168417925050509392505050565b5f819050919050565b5f61134461133f61133a84610b1b565b611321565b610b1b565b9050919050565b5f819050919050565b61135d8361132a565b6113716113698261134b565b8484546112d0565b825550505050565b5f5f905090565b611388611379565b611393818484611354565b505050565b5b818110156113b6576113ab5f82611380565b600181019050611399565b5050565b601f8211156113fb576113cc816112a3565b6113d5846112b5565b810160208510156113e4578190505b6113f86113f0856112b5565b830182611398565b50505b505050565b5f82821c905092915050565b5f61141b5f1984600802611400565b1980831691505092915050565b5f611433838361140c565b9150826002028217905092915050565b61144c82610ba8565b67ffffffffffffffff811115611465576114646109f7565b5b61146f825461118e565b61147a8282856113ba565b5f60209050601f8311600181146114ab575f8415611499578287015190505b6114a38582611428565b86555061150a565b601f1984166114b9866112a3565b5f5b828110156114e0578489015182556001820191506020850194506020810190506114bb565b868310156114fd57848901516114f9601f89168261140c565b8355505b6001600288020188555050505b505050505050565b5f81549050919050565b5f819050815f5260205f209050919050565b5f815461153a8161118e565b6115448186610ced565b9450600182165f811461155e5760018114611574576115a6565b60ff1983168652811515602002860193506115a6565b61157d856112a3565b5f5b8381101561159e5781548189015260018201915060208101905061157f565b808801955050505b50505092915050565b5f815f1c9050919050565b5f819050919050565b5f6115d56115d0836115af565b6115ba565b9050919050565b5f60a083015f5f84018583035f8701526115f6838261152e565b92505060018401549050611609816115c3565b6116166020870182610d35565b5060028401858303604087015261162d838261152e565b92505060038401549050611640816115c3565b61164d6060870182610d35565b50600484018583036080870152611664838261152e565b925050819250505092915050565b5f61167d83836115dc565b905092915050565b5f600582019050919050565b5f61169b82611512565b6116a58185610cce565b9350836020820285016116b78561151c565b805f5b858110156116f1578484038952816116d28582611672565b94506116dd83611685565b925060208a019950506001810190506116ba565b50829750879550505050505092915050565b5f6040820190508181035f83015261171b8185610bd0565b9050818103602083015261172f8184611691565b90509392505050565b7f494e56414c49445f4144445245535300000000000000000000000000000000005f82015250565b5f61176c600f83610bb2565b915061177782611738565b602082019050919050565b5f6020820190508181035f83015261179981611760565b905091905056fea26469706673582212206a8f2703dcb31285ea6fb93223052650235416a50f525695d54bf1129f72ab0764736f6c634300081e0033",
			"opcodes": "PUSH1 0x80 PUSH1 0x40 MSTORE CALLVALUE DUP1 ISZERO PUSH2 0xF JUMPI PUSH0 PUSH0 REVERT JUMPDEST POP CALLER PUSH0 PUSH0 PUSH2 0x100 EXP DUP2 SLOAD DUP2 PUSH20 0xFFFFFFFFFFFFFFFFFFFFFFFFFFFFFFFFFFFFFFFF MUL NOT AND SWAP1 DUP4 PUSH20 0xFFFFFFFFFFFFFFFFFFFFFFFFFFFFFFFFFFFFFFFF AND MUL OR SWAP1 SSTORE POP PUSH2 0x5D PUSH2 0x62 PUSH1 0x20 SHL PUSH1 0x20 SHR JUMP JUMPDEST PUSH2 0xA72 JUMP JUMPDEST PUSH1 0x1 PUSH1 0x40 MLOAD PUSH2 0x70 SWAP1 PUSH2 0x638 JUMP JUMPDEST SWAP1 DUP2 MSTORE PUSH1 0x20 ADD PUSH1 0x40 MLOAD DUP1 SWAP2 SUB SWAP1 KECCAK256 PUSH1 0x40 MLOAD DUP1 PUSH1 0xA0 ADD PUSH1 0x40 MSTORE DUP1 PUSH1 0x40 MLOAD DUP1 PUSH1 0x40 ADD PUSH1 0x40 MSTORE DUP1 PUSH1 0x7 DUP2 MSTORE PUSH1 0x20 ADD PUSH32 0x416C627566696E00000000000000000000000000000000000000000000000000 DUP2 MSTORE POP DUP2 MSTORE PUSH1 0x20 ADD PUSH1 0x1A DUP2 MSTORE PUSH1 0x20 ADD PUSH1 0x40 MLOAD DUP1 PUSH1 0x40 ADD PUSH1 0x40 MSTORE DUP1 PUSH1 0x3 DUP2 MSTORE PUSH1 0x20 ADD PUSH32 0x73756E0000000000000000000000000000000000000000000000000000000000 DUP2 MSTORE POP DUP2 MSTORE PUSH1 0x20 ADD PUSH1 0x1 DUP2 MSTORE PUSH1 0x20 ADD PUSH1 0x40 MLOAD DUP1 PUSH1 0x40 ADD PUSH1 0x40 MSTORE DUP1 PUSH1 0x8 DUP2 MSTORE PUSH1 0x20 ADD PUSH32 0x62672D7768697465000000000000000000000000000000000000000000000000 DUP2 MSTORE POP DUP2 MSTORE POP SWAP1 DUP1 PUSH1 0x1 DUP2 SLOAD ADD DUP1 DUP3 SSTORE DUP1 SWAP2 POP POP PUSH1 0x1 SWAP1 SUB SWAP1 PUSH0 MSTORE PUSH1 0x20 PUSH0 KECCAK256 SWAP1 PUSH1 0x5 MUL ADD PUSH0 SWAP1 SWAP2 SWAP1 SWAP2 SWAP1 SWAP2 POP PUSH0 DUP3 ADD MLOAD DUP2 PUSH0 ADD SWAP1 DUP2 PUSH2 0x17F SWAP2 SWAP1 PUSH2 0x889 JUMP JUMPDEST POP PUSH1 0x20 DUP3 ADD MLOAD DUP2 PUSH1 0x1 ADD SSTORE PUSH1 0x40 DUP3 ADD MLOAD DUP2 PUSH1 0x2 ADD SWAP1 DUP2 PUSH2 0x19F SWAP2 SWAP1 PUSH2 0x889 JUMP JUMPDEST POP PUSH1 0x60 DUP3 ADD MLOAD DUP2 PUSH1 0x3 ADD SSTORE PUSH1 0x80 DUP3 ADD MLOAD DUP2 PUSH1 0x4 ADD SWAP1 DUP2 PUSH2 0x1BF SWAP2 SWAP1 PUSH2 0x889 JUMP JUMPDEST POP POP POP PUSH1 0x1 PUSH1 0x40 MLOAD PUSH2 0x1D0 SWAP1 PUSH2 0x9A2 JUMP JUMPDEST SWAP1 DUP2 MSTORE PUSH1 0x20 ADD PUSH1 0x40 MLOAD DUP1 SWAP2 SUB SWAP1 KECCAK256 PUSH1 0x40 MLOAD DUP1 PUSH1 0xA0 ADD PUSH1 0x40 MSTORE DUP1 PUSH1 0x40 MLOAD DUP1 PUSH1 0x40 ADD PUSH1 0x40 MSTORE DUP1 PUSH1 0x9 DUP2 MSTORE PUSH1 0x20 ADD PUSH32 0x566974616D696E20440000000000000000000000000000000000000000000000 DUP2 MSTORE POP DUP2 MSTORE PUSH1 0x20 ADD PUSH1 0x1A DUP2 MSTORE PUSH1 0x20 ADD PUSH1 0x40 MLOAD DUP1 PUSH1 0x40 ADD PUSH1 0x40 MSTORE DUP1 PUSH1 0x3 DUP2 MSTORE PUSH1 0x20 ADD PUSH32 0x73756E0000000000000000000000000000000000000000000000000000000000 DUP2 MSTORE POP DUP2 MSTORE PUSH1 0x20 ADD PUSH1 0x2 DUP2 MSTORE PUSH1 0x20 ADD PUSH1 0x40 MLOAD DUP1 PUSH1 0x40 ADD PUSH1 0x40 MSTORE DUP1 PUSH1 0xB DUP2 MSTORE PUSH1 0x20 ADD PUSH32 0x62672D677261792D363030000000000000000000000000000000000000000000 DUP2 MSTORE POP DUP2 MSTORE POP SWAP1 DUP1 PUSH1 0x1 DUP2 SLOAD ADD DUP1 DUP3 SSTORE DUP1 SWAP2 POP POP PUSH1 0x1 SWAP1 SUB SWAP1 PUSH0 MSTORE PUSH1 0x20 PUSH0 KECCAK256 SWAP1 PUSH1 0x5 MUL ADD PUSH0 SWAP1 SWAP2 SWAP1 SWAP2 SWAP1 SWAP2 POP PUSH0 DUP3 ADD MLOAD DUP2 PUSH0 ADD SWAP1 DUP2 PUSH2 0x2DF SWAP2 SWAP1 PUSH2 0x889 JUMP JUMPDEST POP PUSH1 0x20 DUP3 ADD MLOAD DUP2 PUSH1 0x1 ADD SSTORE PUSH1 0x40 DUP3 ADD MLOAD DUP2 PUSH1 0x2 ADD SWAP1 DUP2 PUSH2 0x2FF SWAP2 SWAP1 PUSH2 0x889 JUMP JUMPDEST POP PUSH1 0x60 DUP3 ADD MLOAD DUP2 PUSH1 0x3 ADD SSTORE PUSH1 0x80 DUP3 ADD MLOAD DUP2 PUSH1 0x4 ADD SWAP1 DUP2 PUSH2 0x31F SWAP2 SWAP1 PUSH2 0x889 JUMP JUMPDEST POP POP POP PUSH1 0x1 PUSH1 0x40 MLOAD PUSH2 0x330 SWAP1 PUSH2 0xA00 JUMP JUMPDEST SWAP1 DUP2 MSTORE PUSH1 0x20 ADD PUSH1 0x40 MLOAD DUP1 SWAP2 SUB SWAP1 KECCAK256 PUSH1 0x40 MLOAD DUP1 PUSH1 0xA0 ADD PUSH1 0x40 MSTORE DUP1 PUSH1 0x40 MLOAD DUP1 PUSH1 0x40 ADD PUSH1 0x40 MSTORE DUP1 PUSH1 0x7 DUP2 MSTORE PUSH1 0x20 ADD PUSH32 0x4F6D656761203300000000000000000000000000000000000000000000000000 DUP2 MSTORE POP DUP2 MSTORE PUSH1 0x20 ADD PUSH1 0x1A DUP2 MSTORE PUSH1 0x20 ADD PUSH1 0x40 MLOAD DUP1 PUSH1 0x40 ADD PUSH1 0x40 MSTORE DUP1 PUSH1 0x4 DUP2 MSTORE PUSH1 0x20 ADD PUSH32 0x6D6F6F6E00000000000000000000000000000000000000000000000000000000 DUP2 MSTORE POP DUP2 MSTORE PUSH1 0x20 ADD PUSH1 0x2 DUP2 MSTORE PUSH1 0x20 ADD PUSH1 0x40 MLOAD DUP1 PUSH1 0x40 ADD PUSH1 0x40 MSTORE DUP1 PUSH1 0xB DUP2 MSTORE PUSH1 0x20 ADD PUSH32 0x62672D677261792D363030000000000000000000000000000000000000000000 DUP2 MSTORE POP DUP2 MSTORE POP SWAP1 DUP1 PUSH1 0x1 DUP2 SLOAD ADD DUP1 DUP3 SSTORE DUP1 SWAP2 POP POP PUSH1 0x1 SWAP1 SUB SWAP1 PUSH0 MSTORE PUSH1 0x20 PUSH0 KECCAK256 SWAP1 PUSH1 0x5 MUL ADD PUSH0 SWAP1 SWAP2 SWAP1 SWAP2 SWAP1 SWAP2 POP PUSH0 DUP3 ADD MLOAD DUP2 PUSH0 ADD SWAP1 DUP2 PUSH2 0x43F SWAP2 SWAP1 PUSH2 0x889 JUMP JUMPDEST POP PUSH1 0x20 DUP3 ADD MLOAD DUP2 PUSH1 0x1 ADD SSTORE PUSH1 0x40 DUP3 ADD MLOAD DUP2 PUSH1 0x2 ADD SWAP1 DUP2 PUSH2 0x45F SWAP2 SWAP1 PUSH2 0x889 JUMP JUMPDEST POP PUSH1 0x60 DUP3 ADD MLOAD DUP2 PUSH1 0x3 ADD SSTORE PUSH1 0x80 DUP3 ADD MLOAD DUP2 PUSH1 0x4 ADD SWAP1 DUP2 PUSH2 0x47F SWAP2 SWAP1 PUSH2 0x889 JUMP JUMPDEST POP POP POP PUSH1 0x1 PUSH1 0x40 MLOAD PUSH2 0x490 SWAP1 PUSH2 0xA5E JUMP JUMPDEST SWAP1 DUP2 MSTORE PUSH1 0x20 ADD PUSH1 0x40 MLOAD DUP1 SWAP2 SUB SWAP1 KECCAK256 PUSH1 0x40 MLOAD DUP1 PUSH1 0xA0 ADD PUSH1 0x40 MSTORE DUP1 PUSH1 0x40 MLOAD DUP1 PUSH1 0x40 ADD PUSH1 0x40 MSTORE DUP1 PUSH1 0x4 DUP2 MSTORE PUSH1 0x20 ADD PUSH32 0x49726F6E00000000000000000000000000000000000000000000000000000000 DUP2 MSTORE POP DUP2 MSTORE PUSH1 0x20 ADD PUSH1 0x12 DUP2 MSTORE PUSH1 0x20 ADD PUSH1 0x40 MLOAD DUP1 PUSH1 0x40 ADD PUSH1 0x40 MSTORE DUP1 PUSH1 0x3 DUP2 MSTORE PUSH1 0x20 ADD PUSH32 0x73756E0000000000000000000000000000000000000000000000000000000000 DUP2 MSTORE POP DUP2 MSTORE PUSH1 0x20 ADD PUSH1 0x1 DUP2 MSTORE PUSH1 0x20 ADD PUSH1 0x40 MLOAD DUP1 PUSH1 0x40 ADD PUSH1 0x40 MSTORE DUP1 PUSH1 0xB DUP2 MSTORE PUSH1 0x20 ADD PUSH32 0x62672D677261792D363030000000000000000000000000000000000000000000 DUP2 MSTORE POP DUP2 MSTORE POP SWAP1 DUP1 PUSH1 0x1 DUP2 SLOAD ADD DUP1 DUP3 SSTORE DUP1 SWAP2 POP POP PUSH1 0x1 SWAP1 SUB SWAP1 PUSH0 MSTORE PUSH1 0x20 PUSH0 KECCAK256 SWAP1 PUSH1 0x5 MUL ADD PUSH0 SWAP1 SWAP2 SWAP1 SWAP2 SWAP1 SWAP2 POP PUSH0 DUP3 ADD MLOAD DUP2 PUSH0 ADD SWAP1 DUP2 PUSH2 0x59F SWAP2 SWAP1 PUSH2 0x889 JUMP JUMPDEST POP PUSH1 0x20 DUP3 ADD MLOAD DUP2 PUSH1 0x1 ADD SSTORE PUSH1 0x40 DUP3 ADD MLOAD DUP2 PUSH1 0x2 ADD SWAP1 DUP2 PUSH2 0x5BF SWAP2 SWAP1 PUSH2 0x889 JUMP JUMPDEST POP PUSH1 0x60 DUP3 ADD MLOAD DUP2 PUSH1 0x3 ADD SSTORE PUSH1 0x80 DUP3 ADD MLOAD DUP2 PUSH1 0x4 ADD SWAP1 DUP2 PUSH2 0x5DF SWAP2 SWAP1 PUSH2 0x889 JUMP JUMPDEST POP POP POP JUMP JUMPDEST PUSH0 DUP2 SWAP1 POP SWAP3 SWAP2 POP POP JUMP JUMPDEST PUSH32 0x4D6F6E2032310000000000000000000000000000000000000000000000000000 PUSH0 DUP3 ADD MSTORE POP JUMP JUMPDEST PUSH0 PUSH2 0x622 PUSH1 0x6 DUP4 PUSH2 0x5E4 JUMP JUMPDEST SWAP2 POP PUSH2 0x62D DUP3 PUSH2 0x5EE JUMP JUMPDEST PUSH1 0x6 DUP3 ADD SWAP1 POP SWAP2 SWAP1 POP JUMP JUMPDEST PUSH0 PUSH2 0x642 DUP3 PUSH2 0x616 JUMP JUMPDEST SWAP2 POP DUP2 SWAP1 POP SWAP2 SWAP1 POP JUMP JUMPDEST PUSH0 DUP2 MLOAD SWAP1 POP SWAP2 SWAP1 POP JUMP JUMPDEST PUSH32 0x4E487B7100000000000000000000000000000000000000000000000000000000 PUSH0 MSTORE PUSH1 0x41 PUSH1 0x4 MSTORE PUSH1 0x24 PUSH0 REVERT JUMPDEST PUSH32 0x4E487B7100000000000000000000000000000000000000000000000000000000 PUSH0 MSTORE PUSH1 0x22 PUSH1 0x4 MSTORE PUSH1 0x24 PUSH0 REVERT JUMPDEST PUSH0 PUSH1 0x2 DUP3 DIV SWAP1 POP PUSH1 0x1 DUP3 AND DUP1 PUSH2 0x6C7 JUMPI PUSH1 0x7F DUP3 AND SWAP2 POP JUMPDEST PUSH1 0x20 DUP3 LT DUP2 SUB PUSH2 0x6DA JUMPI PUSH2 0x6D9 PUSH2 0x683 JUMP JUMPDEST JUMPDEST POP SWAP2 SWAP1 POP JUMP JUMPDEST PUSH0 DUP2 SWAP1 POP DUP2 PUSH0 MSTORE PUSH1 0x20 PUSH0 KECCAK256 SWAP1 POP SWAP2 SWAP1 POP JUMP JUMPDEST PUSH0 PUSH1 0x20 PUSH1 0x1F DUP4 ADD DIV SWAP1 POP SWAP2 SWAP1 POP JUMP JUMPDEST PUSH0 DUP3 DUP3 SHL SWAP1 POP SWAP3 SWAP2 POP POP JUMP JUMPDEST PUSH0 PUSH1 0x8 DUP4 MUL PUSH2 0x73C PUSH32 0xFFFFFFFFFFFFFFFFFFFFFFFFFFFFFFFFFFFFFFFFFFFFFFFFFFFFFFFFFFFFFFFF DUP3 PUSH2 0x701 JUMP JUMPDEST PUSH2 0x746 DUP7 DUP4 PUSH2 0x701 JUMP JUMPDEST SWAP6 POP DUP1 NOT DUP5 AND SWAP4 POP DUP1 DUP7 AND DUP5 OR SWAP3 POP POP POP SWAP4 SWAP3 POP POP POP JUMP JUMPDEST PUSH0 DUP2 SWAP1 POP SWAP2 SWAP1 POP JUMP JUMPDEST PUSH0 DUP2 SWAP1 POP SWAP2 SWAP1 POP JUMP JUMPDEST PUSH0 PUSH2 0x78A PUSH2 0x785 PUSH2 0x780 DUP5 PUSH2 0x75E JUMP JUMPDEST PUSH2 0x767 JUMP JUMPDEST PUSH2 0x75E JUMP JUMPDEST SWAP1 POP SWAP2 SWAP1 POP JUMP JUMPDEST PUSH0 DUP2 SWAP1 POP SWAP2 SWAP1 POP JUMP JUMPDEST PUSH2 0x7A3 DUP4 PUSH2 0x770 JUMP JUMPDEST PUSH2 0x7B7 PUSH2 0x7AF DUP3 PUSH2 0x791 JUMP JUMPDEST DUP5 DUP5 SLOAD PUSH2 0x70D JUMP JUMPDEST DUP3 SSTORE POP POP POP POP JUMP JUMPDEST PUSH0 PUSH0 SWAP1 POP SWAP1 JUMP JUMPDEST PUSH2 0x7CE PUSH2 0x7BF JUMP JUMPDEST PUSH2 0x7D9 DUP2 DUP5 DUP5 PUSH2 0x79A JUMP JUMPDEST POP POP POP JUMP JUMPDEST JUMPDEST DUP2 DUP2 LT ISZERO PUSH2 0x7FC JUMPI PUSH2 0x7F1 PUSH0 DUP3 PUSH2 0x7C6 JUMP JUMPDEST PUSH1 0x1 DUP2 ADD SWAP1 POP PUSH2 0x7DF JUMP JUMPDEST POP POP JUMP JUMPDEST PUSH1 0x1F DUP3 GT ISZERO PUSH2 0x841 JUMPI PUSH2 0x812 DUP2 PUSH2 0x6E0 JUMP JUMPDEST PUSH2 0x81B DUP5 PUSH2 0x6F2 JUMP JUMPDEST DUP2 ADD PUSH1 0x20 DUP6 LT ISZERO PUSH2 0x82A JUMPI DUP2 SWAP1 POP JUMPDEST PUSH2 0x83E PUSH2 0x836 DUP6 PUSH2 0x6F2 JUMP JUMPDEST DUP4 ADD DUP3 PUSH2 0x7DE JUMP JUMPDEST POP POP JUMPDEST POP POP POP JUMP JUMPDEST PUSH0 DUP3 DUP3 SHR SWAP1 POP SWAP3 SWAP2 POP POP JUMP JUMPDEST PUSH0 PUSH2 0x861 PUSH0 NOT DUP5 PUSH1 0x8 MUL PUSH2 0x846 JUMP JUMPDEST NOT DUP1 DUP4 AND SWAP2 POP POP SWAP3 SWAP2 POP POP JUMP JUMPDEST PUSH0 PUSH2 0x879 DUP4 DUP4 PUSH2 0x852 JUMP JUMPDEST SWAP2 POP DUP3 PUSH1 0x2 MUL DUP3 OR SWAP1 POP SWAP3 SWAP2 POP POP JUMP JUMPDEST PUSH2 0x892 DUP3 PUSH2 0x64C JUMP JUMPDEST PUSH8 0xFFFFFFFFFFFFFFFF DUP2 GT ISZERO PUSH2 0x8AB JUMPI PUSH2 0x8AA PUSH2 0x656 JUMP JUMPDEST JUMPDEST PUSH2 0x8B5 DUP3 SLOAD PUSH2 0x6B0 JUMP JUMPDEST PUSH2 0x8C0 DUP3 DUP3 DUP6 PUSH2 0x800 JUMP JUMPDEST PUSH0 PUSH1 0x20 SWAP1 POP PUSH1 0x1F DUP4 GT PUSH1 0x1 DUP2 EQ PUSH2 0x8F1 JUMPI PUSH0 DUP5 ISZERO PUSH2 0x8DF JUMPI DUP3 DUP8 ADD MLOAD SWAP1 POP JUMPDEST PUSH2 0x8E9 DUP6 DUP3 PUSH2 0x86E JUMP JUMPDEST DUP7 SSTORE POP PUSH2 0x950 JUMP JUMPDEST PUSH1 0x1F NOT DUP5 AND PUSH2 0x8FF DUP7 PUSH2 0x6E0 JUMP JUMPDEST PUSH0 JUMPDEST DUP3 DUP2 LT ISZERO PUSH2 0x926 JUMPI DUP5 DUP10 ADD MLOAD DUP3 SSTORE PUSH1 0x1 DUP3 ADD SWAP2 POP PUSH1 0x20 DUP6 ADD SWAP5 POP PUSH1 0x20 DUP2 ADD SWAP1 POP PUSH2 0x901 JUMP JUMPDEST DUP7 DUP4 LT ISZERO PUSH2 0x943 JUMPI DUP5 DUP10 ADD MLOAD PUSH2 0x93F PUSH1 0x1F DUP10 AND DUP3 PUSH2 0x852 JUMP JUMPDEST DUP4 SSTORE POP JUMPDEST PUSH1 0x1 PUSH1 0x2 DUP9 MUL ADD DUP9 SSTORE POP POP POP JUMPDEST POP POP POP POP POP POP JUMP JUMPDEST PUSH32 0x53756E2032300000000000000000000000000000000000000000000000000000 PUSH0 DUP3 ADD MSTORE POP JUMP JUMPDEST PUSH0 PUSH2 0x98C PUSH1 0x6 DUP4 PUSH2 0x5E4 JUMP JUMPDEST SWAP2 POP PUSH2 0x997 DUP3 PUSH2 0x958 JUMP JUMPDEST PUSH1 0x6 DUP3 ADD SWAP1 POP SWAP2 SWAP1 POP JUMP JUMPDEST PUSH0 PUSH2 0x9AC DUP3 PUSH2 0x980 JUMP JUMPDEST SWAP2 POP DUP2 SWAP1 POP SWAP2 SWAP1 POP JUMP JUMPDEST PUSH32 0x5361742031390000000000000000000000000000000000000000000000000000 PUSH0 DUP3 ADD MSTORE POP JUMP JUMPDEST PUSH0 PUSH2 0x9EA PUSH1 0x6 DUP4 PUSH2 0x5E4 JUMP JUMPDEST SWAP2 POP PUSH2 0x9F5 DUP3 PUSH2 0x9B6 JUMP JUMPDEST PUSH1 0x6 DUP3 ADD SWAP1 POP SWAP2 SWAP1 POP JUMP JUMPDEST PUSH0 PUSH2 0xA0A DUP3 PUSH2 0x9DE JUMP JUMPDEST SWAP2 POP DUP2 SWAP1 POP SWAP2 SWAP1 POP JUMP JUMPDEST PUSH32 0x4672692031380000000000000000000000000000000000000000000000000000 PUSH0 DUP3 ADD MSTORE POP JUMP JUMPDEST PUSH0 PUSH2 0xA48 PUSH1 0x6 DUP4 PUSH2 0x5E4 JUMP JUMPDEST SWAP2 POP PUSH2 0xA53 DUP3 PUSH2 0xA14 JUMP JUMPDEST PUSH1 0x6 DUP3 ADD SWAP1 POP SWAP2 SWAP1 POP JUMP JUMPDEST PUSH0 PUSH2 0xA68 DUP3 PUSH2 0xA3C JUMP JUMPDEST SWAP2 POP DUP2 SWAP1 POP SWAP2 SWAP1 POP JUMP JUMPDEST PUSH2 0x17D6 DUP1 PUSH2 0xA7F PUSH0 CODECOPY PUSH0 RETURN INVALID PUSH1 0x80 PUSH1 0x40 MSTORE CALLVALUE DUP1 ISZERO PUSH2 0xF JUMPI PUSH0 PUSH0 REVERT JUMPDEST POP PUSH1 0x4 CALLDATASIZE LT PUSH2 0x55 JUMPI PUSH0 CALLDATALOAD PUSH1 0xE0 SHR DUP1 PUSH4 0x36A48EE5 EQ PUSH2 0x59 JUMPI DUP1 PUSH4 0x6CA07056 EQ PUSH2 0x8D JUMPI DUP1 PUSH4 0x8DA5CB5B EQ PUSH2 0xBD JUMPI DUP1 PUSH4 0xCFB2749D EQ PUSH2 0xDB JUMPI DUP1 PUSH4 0xF2FDE38B EQ PUSH2 0xF7 JUMPI JUMPDEST PUSH0 PUSH0 REVERT JUMPDEST PUSH2 0x73 PUSH1 0x4 DUP1 CALLDATASIZE SUB DUP2 ADD SWAP1 PUSH2 0x6E SWAP2 SWAP1 PUSH2 0xB4E JUMP JUMPDEST PUSH2 0x113 JUMP JUMPDEST PUSH1 0x40 MLOAD PUSH2 0x84 SWAP6 SWAP5 SWAP4 SWAP3 SWAP2 SWAP1 PUSH2 0xC17 JUMP JUMPDEST PUSH1 0x40 MLOAD DUP1 SWAP2 SUB SWAP1 RETURN JUMPDEST PUSH2 0xA7 PUSH1 0x4 DUP1 CALLDATASIZE SUB DUP2 ADD SWAP1 PUSH2 0xA2 SWAP2 SWAP1 PUSH2 0xC7D JUMP JUMPDEST PUSH2 0x309 JUMP JUMPDEST PUSH1 0x40 MLOAD PUSH2 0xB4 SWAP2 SWAP1 PUSH2 0xE57 JUMP JUMPDEST PUSH1 0x40 MLOAD DUP1 SWAP2 SUB SWAP1 RETURN JUMPDEST PUSH2 0xC5 PUSH2 0x546 JUMP JUMPDEST PUSH1 0x40 MLOAD PUSH2 0xD2 SWAP2 SWAP1 PUSH2 0xEB6 JUMP JUMPDEST PUSH1 0x40 MLOAD DUP1 SWAP2 SUB SWAP1 RETURN JUMPDEST PUSH2 0xF5 PUSH1 0x4 DUP1 CALLDATASIZE SUB DUP2 ADD SWAP1 PUSH2 0xF0 SWAP2 SWAP1 PUSH2 0x1096 JUMP JUMPDEST PUSH2 0x56A JUMP JUMPDEST STOP JUMPDEST PUSH2 0x111 PUSH1 0x4 DUP1 CALLDATASIZE SUB DUP2 ADD SWAP1 PUSH2 0x10C SWAP2 SWAP1 PUSH2 0x1136 JUMP JUMPDEST PUSH2 0x74C JUMP JUMPDEST STOP JUMPDEST PUSH1 0x1 DUP3 DUP1 MLOAD PUSH1 0x20 DUP2 ADD DUP3 ADD DUP1 MLOAD DUP5 DUP3 MSTORE PUSH1 0x20 DUP4 ADD PUSH1 0x20 DUP6 ADD KECCAK256 DUP2 DUP4 MSTORE DUP1 SWAP6 POP POP POP POP POP POP DUP2 DUP2 SLOAD DUP2 LT PUSH2 0x144 JUMPI PUSH0 DUP1 REVERT JUMPDEST SWAP1 PUSH0 MSTORE PUSH1 0x20 PUSH0 KECCAK256 SWAP1 PUSH1 0x5 MUL ADD PUSH0 SWAP2 POP SWAP2 POP POP DUP1 PUSH0 ADD DUP1 SLOAD PUSH2 0x164 SWAP1 PUSH2 0x118E JUMP JUMPDEST DUP1 PUSH1 0x1F ADD PUSH1 0x20 DUP1 SWAP2 DIV MUL PUSH1 0x20 ADD PUSH1 0x40 MLOAD SWAP1 DUP2 ADD PUSH1 0x40 MSTORE DUP1 SWAP3 SWAP2 SWAP1 DUP2 DUP2 MSTORE PUSH1 0x20 ADD DUP3 DUP1 SLOAD PUSH2 0x190 SWAP1 PUSH2 0x118E JUMP JUMPDEST DUP1 ISZERO PUSH2 0x1DB JUMPI DUP1 PUSH1 0x1F LT PUSH2 0x1B2 JUMPI PUSH2 0x100 DUP1 DUP4 SLOAD DIV MUL DUP4 MSTORE SWAP2 PUSH1 0x20 ADD SWAP2 PUSH2 0x1DB JUMP JUMPDEST DUP3 ADD SWAP2 SWAP1 PUSH0 MSTORE PUSH1 0x20 PUSH0 KECCAK256 SWAP1 JUMPDEST DUP2 SLOAD DUP2 MSTORE SWAP1 PUSH1 0x1 ADD SWAP1 PUSH1 0x20 ADD DUP1 DUP4 GT PUSH2 0x1BE JUMPI DUP3 SWAP1 SUB PUSH1 0x1F AND DUP3 ADD SWAP2 JUMPDEST POP POP POP POP POP SWAP1 DUP1 PUSH1 0x1 ADD SLOAD SWAP1 DUP1 PUSH1 0x2 ADD DUP1 SLOAD PUSH2 0x1F6 SWAP1 PUSH2 0x118E JUMP JUMPDEST DUP1 PUSH1 0x1F ADD PUSH1 0x20 DUP1 SWAP2 DIV MUL PUSH1 0x20 ADD PUSH1 0x40 MLOAD SWAP1 DUP2 ADD PUSH1 0x40 MSTORE DUP1 SWAP3 SWAP2 SWAP1 DUP2 DUP2 MSTORE PUSH1 0x20 ADD DUP3 DUP1 SLOAD PUSH2 0x222 SWAP1 PUSH2 0x118E JUMP JUMPDEST DUP1 ISZERO PUSH2 0x26D JUMPI DUP1 PUSH1 0x1F LT PUSH2 0x244 JUMPI PUSH2 0x100 DUP1 DUP4 SLOAD DIV MUL DUP4 MSTORE SWAP2 PUSH1 0x20 ADD SWAP2 PUSH2 0x26D JUMP JUMPDEST DUP3 ADD SWAP2 SWAP1 PUSH0 MSTORE PUSH1 0x20 PUSH0 KECCAK256 SWAP1 JUMPDEST DUP2 SLOAD DUP2 MSTORE SWAP1 PUSH1 0x1 ADD SWAP1 PUSH1 0x20 ADD DUP1 DUP4 GT PUSH2 0x250 JUMPI DUP3 SWAP1 SUB PUSH1 0x1F AND DUP3 ADD SWAP2 JUMPDEST POP POP POP POP POP SWAP1 DUP1 PUSH1 0x3 ADD SLOAD SWAP1 DUP1 PUSH1 0x4 ADD DUP1 SLOAD PUSH2 0x288 SWAP1 PUSH2 0x118E JUMP JUMPDEST DUP1 PUSH1 0x1F ADD PUSH1 0x20 DUP1 SWAP2 DIV MUL PUSH1 0x20 ADD PUSH1 0x40 MLOAD SWAP1 DUP2 ADD PUSH1 0x40 MSTORE DUP1 SWAP3 SWAP2 SWAP1 DUP2 DUP2 MSTORE PUSH1 0x20 ADD DUP3 DUP1 SLOAD PUSH2 0x2B4 SWAP1 PUSH2 0x118E JUMP JUMPDEST DUP1 ISZERO PUSH2 0x2FF JUMPI DUP1 PUSH1 0x1F LT PUSH2 0x2D6 JUMPI PUSH2 0x100 DUP1 DUP4 SLOAD DIV MUL DUP4 MSTORE SWAP2 PUSH1 0x20 ADD SWAP2 PUSH2 0x2FF JUMP JUMPDEST DUP3 ADD SWAP2 SWAP1 PUSH0 MSTORE PUSH1 0x20 PUSH0 KECCAK256 SWAP1 JUMPDEST DUP2 SLOAD DUP2 MSTORE SWAP1 PUSH1 0x1 ADD SWAP1 PUSH1 0x20 ADD DUP1 DUP4 GT PUSH2 0x2E2 JUMPI DUP3 SWAP1 SUB PUSH1 0x1F AND DUP3 ADD SWAP2 JUMPDEST POP POP POP POP POP SWAP1 POP DUP6 JUMP JUMPDEST PUSH1 0x60 PUSH1 0x1 DUP3 PUSH1 0x40 MLOAD PUSH2 0x31B SWAP2 SWAP1 PUSH2 0x11F8 JUMP JUMPDEST SWAP1 DUP2 MSTORE PUSH1 0x20 ADD PUSH1 0x40 MLOAD DUP1 SWAP2 SUB SWAP1 KECCAK256 DUP1 SLOAD DUP1 PUSH1 0x20 MUL PUSH1 0x20 ADD PUSH1 0x40 MLOAD SWAP1 DUP2 ADD PUSH1 0x40 MSTORE DUP1 SWAP3 SWAP2 SWAP1 DUP2 DUP2 MSTORE PUSH1 0x20 ADD PUSH0 SWAP1 JUMPDEST DUP3 DUP3 LT ISZERO PUSH2 0x53B JUMPI DUP4 DUP3 SWAP1 PUSH0 MSTORE PUSH1 0x20 PUSH0 KECCAK256 SWAP1 PUSH1 0x5 MUL ADD PUSH1 0x40 MLOAD DUP1 PUSH1 0xA0 ADD PUSH1 0x40 MSTORE SWAP1 DUP2 PUSH0 DUP3 ADD DUP1 SLOAD PUSH2 0x378 SWAP1 PUSH2 0x118E JUMP JUMPDEST DUP1 PUSH1 0x1F ADD PUSH1 0x20 DUP1 SWAP2 DIV MUL PUSH1 0x20 ADD PUSH1 0x40 MLOAD SWAP1 DUP2 ADD PUSH1 0x40 MSTORE DUP1 SWAP3 SWAP2 SWAP1 DUP2 DUP2 MSTORE PUSH1 0x20 ADD DUP3 DUP1 SLOAD PUSH2 0x3A4 SWAP1 PUSH2 0x118E JUMP JUMPDEST DUP1 ISZERO PUSH2 0x3EF JUMPI DUP1 PUSH1 0x1F LT PUSH2 0x3C6 JUMPI PUSH2 0x100 DUP1 DUP4 SLOAD DIV MUL DUP4 MSTORE SWAP2 PUSH1 0x20 ADD SWAP2 PUSH2 0x3EF JUMP JUMPDEST DUP3 ADD SWAP2 SWAP1 PUSH0 MSTORE PUSH1 0x20 PUSH0 KECCAK256 SWAP1 JUMPDEST DUP2 SLOAD DUP2 MSTORE SWAP1 PUSH1 0x1 ADD SWAP1 PUSH1 0x20 ADD DUP1 DUP4 GT PUSH2 0x3D2 JUMPI DUP3 SWAP1 SUB PUSH1 0x1F AND DUP3 ADD SWAP2 JUMPDEST POP POP POP POP POP DUP2 MSTORE PUSH1 0x20 ADD PUSH1 0x1 DUP3 ADD SLOAD DUP2 MSTORE PUSH1 0x20 ADD PUSH1 0x2 DUP3 ADD DUP1 SLOAD PUSH2 0x412 SWAP1 PUSH2 0x118E JUMP JUMPDEST DUP1 PUSH1 0x1F ADD PUSH1 0x20 DUP1 SWAP2 DIV MUL PUSH1 0x20 ADD PUSH1 0x40 MLOAD SWAP1 DUP2 ADD PUSH1 0x40 MSTORE DUP1 SWAP3 SWAP2 SWAP1 DUP2 DUP2 MSTORE PUSH1 0x20 ADD DUP3 DUP1 SLOAD PUSH2 0x43E SWAP1 PUSH2 0x118E JUMP JUMPDEST DUP1 ISZERO PUSH2 0x489 JUMPI DUP1 PUSH1 0x1F LT PUSH2 0x460 JUMPI PUSH2 0x100 DUP1 DUP4 SLOAD DIV MUL DUP4 MSTORE SWAP2 PUSH1 0x20 ADD SWAP2 PUSH2 0x489 JUMP JUMPDEST DUP3 ADD SWAP2 SWAP1 PUSH0 MSTORE PUSH1 0x20 PUSH0 KECCAK256 SWAP1 JUMPDEST DUP2 SLOAD DUP2 MSTORE SWAP1 PUSH1 0x1 ADD SWAP1 PUSH1 0x20 ADD DUP1 DUP4 GT PUSH2 0x46C JUMPI DUP3 SWAP1 SUB PUSH1 0x1F AND DUP3 ADD SWAP2 JUMPDEST POP POP POP POP POP DUP2 MSTORE PUSH1 0x20 ADD PUSH1 0x3 DUP3 ADD SLOAD DUP2 MSTORE PUSH1 0x20 ADD PUSH1 0x4 DUP3 ADD DUP1 SLOAD PUSH2 0x4AC SWAP1 PUSH2 0x118E JUMP JUMPDEST DUP1 PUSH1 0x1F ADD PUSH1 0x20 DUP1 SWAP2 DIV MUL PUSH1 0x20 ADD PUSH1 0x40 MLOAD SWAP1 DUP2 ADD PUSH1 0x40 MSTORE DUP1 SWAP3 SWAP2 SWAP1 DUP2 DUP2 MSTORE PUSH1 0x20 ADD DUP3 DUP1 SLOAD PUSH2 0x4D8 SWAP1 PUSH2 0x118E JUMP JUMPDEST DUP1 ISZERO PUSH2 0x523 JUMPI DUP1 PUSH1 0x1F LT PUSH2 0x4FA JUMPI PUSH2 0x100 DUP1 DUP4 SLOAD DIV MUL DUP4 MSTORE SWAP2 PUSH1 0x20 ADD SWAP2 PUSH2 0x523 JUMP JUMPDEST DUP3 ADD SWAP2 SWAP1 PUSH0 MSTORE PUSH1 0x20 PUSH0 KECCAK256 SWAP1 JUMPDEST DUP2 SLOAD DUP2 MSTORE SWAP1 PUSH1 0x1 ADD SWAP1 PUSH1 0x20 ADD DUP1 DUP4 GT PUSH2 0x506 JUMPI DUP3 SWAP1 SUB PUSH1 0x1F AND DUP3 ADD SWAP2 JUMPDEST POP POP POP POP POP DUP2 MSTORE POP POP DUP2 MSTORE PUSH1 0x20 ADD SWAP1 PUSH1 0x1 ADD SWAP1 PUSH2 0x348 JUMP JUMPDEST POP POP POP POP SWAP1 POP SWAP2 SWAP1 POP JUMP JUMPDEST PUSH0 PUSH0 SWAP1 SLOAD SWAP1 PUSH2 0x100 EXP SWAP1 DIV PUSH20 0xFFFFFFFFFFFFFFFFFFFFFFFFFFFFFFFFFFFFFFFF AND DUP2 JUMP JUMPDEST PUSH0 PUSH0 SWAP1 SLOAD SWAP1 PUSH2 0x100 EXP SWAP1 DIV PUSH20 0xFFFFFFFFFFFFFFFFFFFFFFFFFFFFFFFFFFFFFFFF AND PUSH20 0xFFFFFFFFFFFFFFFFFFFFFFFFFFFFFFFFFFFFFFFF AND CALLER PUSH20 0xFFFFFFFFFFFFFFFFFFFFFFFFFFFFFFFFFFFFFFFF AND EQ PUSH2 0x5F8 JUMPI PUSH1 0x40 MLOAD PUSH32 0x8C379A000000000000000000000000000000000000000000000000000000000 DUP2 MSTORE PUSH1 0x4 ADD PUSH2 0x5EF SWAP1 PUSH2 0x1258 JUMP JUMPDEST PUSH1 0x40 MLOAD DUP1 SWAP2 SUB SWAP1 REVERT JUMPDEST PUSH1 0x1 DUP3 PUSH1 0x40 MLOAD PUSH2 0x608 SWAP2 SWAP1 PUSH2 0x11F8 JUMP JUMPDEST SWAP1 DUP2 MSTORE PUSH1 0x20 ADD PUSH1 0x40 MLOAD DUP1 SWAP2 SUB SWAP1 KECCAK256 PUSH0 PUSH2 0x621 SWAP2 SWAP1 PUSH2 0x904 JUMP JUMPDEST PUSH0 PUSH0 SWAP1 POP JUMPDEST DUP2 MLOAD DUP2 LT ISZERO PUSH2 0x6F1 JUMPI PUSH1 0x1 DUP4 PUSH1 0x40 MLOAD PUSH2 0x63F SWAP2 SWAP1 PUSH2 0x11F8 JUMP JUMPDEST SWAP1 DUP2 MSTORE PUSH1 0x20 ADD PUSH1 0x40 MLOAD DUP1 SWAP2 SUB SWAP1 KECCAK256 DUP3 DUP3 DUP2 MLOAD DUP2 LT PUSH2 0x660 JUMPI PUSH2 0x65F PUSH2 0x1276 JUMP JUMPDEST JUMPDEST PUSH1 0x20 MUL PUSH1 0x20 ADD ADD MLOAD SWAP1 DUP1 PUSH1 0x1 DUP2 SLOAD ADD DUP1 DUP3 SSTORE DUP1 SWAP2 POP POP PUSH1 0x1 SWAP1 SUB SWAP1 PUSH0 MSTORE PUSH1 0x20 PUSH0 KECCAK256 SWAP1 PUSH1 0x5 MUL ADD PUSH0 SWAP1 SWAP2 SWAP1 SWAP2 SWAP1 SWAP2 POP PUSH0 DUP3 ADD MLOAD DUP2 PUSH0 ADD SWAP1 DUP2 PUSH2 0x6A1 SWAP2 SWAP1 PUSH2 0x1443 JUMP JUMPDEST POP PUSH1 0x20 DUP3 ADD MLOAD DUP2 PUSH1 0x1 ADD SSTORE PUSH1 0x40 DUP3 ADD MLOAD DUP2 PUSH1 0x2 ADD SWAP1 DUP2 PUSH2 0x6C1 SWAP2 SWAP1 PUSH2 0x1443 JUMP JUMPDEST POP PUSH1 0x60 DUP3 ADD MLOAD DUP2 PUSH1 0x3 ADD SSTORE PUSH1 0x80 DUP3 ADD MLOAD DUP2 PUSH1 0x4 ADD SWAP1 DUP2 PUSH2 0x6E1 SWAP2 SWAP1 PUSH2 0x1443 JUMP JUMPDEST POP POP POP DUP1 DUP1 PUSH1 0x1 ADD SWAP2 POP POP PUSH2 0x626 JUMP JUMPDEST POP PUSH32 0xC2449EDA7F6620AE8FF0183B4DAB7842C5427052D7916956E7E9B252F7D51E06 DUP3 PUSH1 0x1 DUP5 PUSH1 0x40 MLOAD PUSH2 0x724 SWAP2 SWAP1 PUSH2 0x11F8 JUMP JUMPDEST SWAP1 DUP2 MSTORE PUSH1 0x20 ADD PUSH1 0x40 MLOAD DUP1 SWAP2 SUB SWAP1 KECCAK256 PUSH1 0x40 MLOAD PUSH2 0x740 SWAP3 SWAP2 SWAP1 PUSH2 0x1703 JUMP JUMPDEST PUSH1 0x40 MLOAD DUP1 SWAP2 SUB SWAP1 LOG1 POP POP JUMP JUMPDEST PUSH0 PUSH0 SWAP1 SLOAD SWAP1 PUSH2 0x100 EXP SWAP1 DIV PUSH20 0xFFFFFFFFFFFFFFFFFFFFFFFFFFFFFFFFFFFFFFFF AND PUSH20 0xFFFFFFFFFFFFFFFFFFFFFFFFFFFFFFFFFFFFFFFF AND CALLER PUSH20 0xFFFFFFFFFFFFFFFFFFFFFFFFFFFFFFFFFFFFFFFF AND EQ PUSH2 0x7DA JUMPI PUSH1 0x40 MLOAD PUSH32 0x8C379A000000000000000000000000000000000000000000000000000000000 DUP2 MSTORE PUSH1 0x4 ADD PUSH2 0x7D1 SWAP1 PUSH2 0x1258 JUMP JUMPDEST PUSH1 0x40 MLOAD DUP1 SWAP2 SUB SWAP1 REVERT JUMPDEST PUSH0 PUSH20 0xFFFFFFFFFFFFFFFFFFFFFFFFFFFFFFFFFFFFFFFF AND DUP2 PUSH20 0xFFFFFFFFFFFFFFFFFFFFFFFFFFFFFFFFFFFFFFFF AND SUB PUSH2 0x848 JUMPI PUSH1 0x40 MLOAD PUSH32 0x8C379A000000000000000000000000000000000000000000000000000000000 DUP2 MSTORE PUSH1 0x4 ADD PUSH2 0x83F SWAP1 PUSH2 0x1782 JUMP JUMPDEST PUSH1 0x40 MLOAD DUP1 SWAP2 SUB SWAP1 REVERT JUMPDEST DUP1 PUSH20 0xFFFFFFFFFFFFFFFFFFFFFFFFFFFFFFFFFFFFFFFF AND PUSH0 PUSH0 SWAP1 SLOAD SWAP1 PUSH2 0x100 EXP SWAP1 DIV PUSH20 0xFFFFFFFFFFFFFFFFFFFFFFFFFFFFFFFFFFFFFFFF AND PUSH20 0xFFFFFFFFFFFFFFFFFFFFFFFFFFFFFFFFFFFFFFFF AND PUSH32 0x8BE0079C531659141344CD1FD0A4F28419497F9722A3DAAFE3B4186F6B6457E0 PUSH1 0x40 MLOAD PUSH1 0x40 MLOAD DUP1 SWAP2 SUB SWAP1 LOG3 DUP1 PUSH0 PUSH0 PUSH2 0x100 EXP DUP2 SLOAD DUP2 PUSH20 0xFFFFFFFFFFFFFFFFFFFFFFFFFFFFFFFFFFFFFFFF MUL NOT AND SWAP1 DUP4 PUSH20 0xFFFFFFFFFFFFFFFFFFFFFFFFFFFFFFFFFFFFFFFF AND MUL OR SWAP1 SSTORE POP POP JUMP JUMPDEST POP DUP1 SLOAD PUSH0 DUP3 SSTORE PUSH1 0x5 MUL SWAP1 PUSH0 MSTORE PUSH1 0x20 PUSH0 KECCAK256 SWAP1 DUP2 ADD SWAP1 PUSH2 0x922 SWAP2 SWAP1 PUSH2 0x925 JUMP JUMPDEST POP JUMP JUMPDEST JUMPDEST DUP1 DUP3 GT ISZERO PUSH2 0x972 JUMPI PUSH0 PUSH0 DUP3 ADD PUSH0 PUSH2 0x93D SWAP2 SWAP1 PUSH2 0x976 JUMP JUMPDEST PUSH1 0x1 DUP3 ADD PUSH0 SWAP1 SSTORE PUSH1 0x2 DUP3 ADD PUSH0 PUSH2 0x953 SWAP2 SWAP1 PUSH2 0x976 JUMP JUMPDEST PUSH1 0x3 DUP3 ADD PUSH0 SWAP1 SSTORE PUSH1 0x4 DUP3 ADD PUSH0 PUSH2 0x969 SWAP2 SWAP1 PUSH2 0x976 JUMP JUMPDEST POP PUSH1 0x5 ADD PUSH2 0x926 JUMP JUMPDEST POP SWAP1 JUMP JUMPDEST POP DUP1 SLOAD PUSH2 0x982 SWAP1 PUSH2 0x118E JUMP JUMPDEST PUSH0 DUP3 SSTORE DUP1 PUSH1 0x1F LT PUSH2 0x993 JUMPI POP PUSH2 0x9B0 JUMP JUMPDEST PUSH1 0x1F ADD PUSH1 0x20 SWAP1 DIV SWAP1 PUSH0 MSTORE PUSH1 0x20 PUSH0 KECCAK256 SWAP1 DUP2 ADD SWAP1 PUSH2 0x9AF SWAP2 SWAP1 PUSH2 0x9B3 JUMP JUMPDEST JUMPDEST POP JUMP JUMPDEST JUMPDEST DUP1 DUP3 GT ISZERO PUSH2 0x9CA JUMPI PUSH0 DUP2 PUSH0 SWAP1 SSTORE POP PUSH1 0x1 ADD PUSH2 0x9B4 JUMP JUMPDEST POP SWAP1 JUMP JUMPDEST PUSH0 PUSH1 0x40 MLOAD SWAP1 POP SWAP1 JUMP JUMPDEST PUSH0 PUSH0 REVERT JUMPDEST PUSH0 PUSH0 REVERT JUMPDEST PUSH0 PUSH0 REVERT JUMPDEST PUSH0 PUSH0 REVERT JUMPDEST PUSH0 PUSH1 0x1F NOT PUSH1 0x1F DUP4 ADD AND SWAP1 POP SWAP2 SWAP1 POP JUMP JUMPDEST PUSH32 0x4E487B7100000000000000000000000000000000000000000000000000000000 PUSH0 MSTORE PUSH1 0x41 PUSH1 0x4 MSTORE PUSH1 0x24 PUSH0 REVERT JUMPDEST PUSH2 0xA2D DUP3 PUSH2 0x9E7 JUMP JUMPDEST DUP2 ADD DUP2 DUP2 LT PUSH8 0xFFFFFFFFFFFFFFFF DUP3 GT OR ISZERO PUSH2 0xA4C JUMPI PUSH2 0xA4B PUSH2 0x9F7 JUMP JUMPDEST JUMPDEST DUP1 PUSH1 0x40 MSTORE POP POP POP JUMP JUMPDEST PUSH0 PUSH2 0xA5E PUSH2 0x9CE JUMP JUMPDEST SWAP1 POP PUSH2 0xA6A DUP3 DUP3 PUSH2 0xA24 JUMP JUMPDEST SWAP2 SWAP1 POP JUMP JUMPDEST PUSH0 PUSH8 0xFFFFFFFFFFFFFFFF DUP3 GT ISZERO PUSH2 0xA89 JUMPI PUSH2 0xA88 PUSH2 0x9F7 JUMP JUMPDEST JUMPDEST PUSH2 0xA92 DUP3 PUSH2 0x9E7 JUMP JUMPDEST SWAP1 POP PUSH1 0x20 DUP2 ADD SWAP1 POP SWAP2 SWAP1 POP JUMP JUMPDEST DUP3 DUP2 DUP4 CALLDATACOPY PUSH0 DUP4 DUP4 ADD MSTORE POP POP POP JUMP JUMPDEST PUSH0 PUSH2 0xABF PUSH2 0xABA DUP5 PUSH2 0xA6F JUMP JUMPDEST PUSH2 0xA55 JUMP JUMPDEST SWAP1 POP DUP3 DUP2 MSTORE PUSH1 0x20 DUP2 ADD DUP5 DUP5 DUP5 ADD GT ISZERO PUSH2 0xADB JUMPI PUSH2 0xADA PUSH2 0x9E3 JUMP JUMPDEST JUMPDEST PUSH2 0xAE6 DUP5 DUP3 DUP6 PUSH2 0xA9F JUMP JUMPDEST POP SWAP4 SWAP3 POP POP POP JUMP JUMPDEST PUSH0 DUP3 PUSH1 0x1F DUP4 ADD SLT PUSH2 0xB02 JUMPI PUSH2 0xB01 PUSH2 0x9DF JUMP JUMPDEST JUMPDEST DUP2 CALLDATALOAD PUSH2 0xB12 DUP5 DUP3 PUSH1 0x20 DUP7 ADD PUSH2 0xAAD JUMP JUMPDEST SWAP2 POP POP SWAP3 SWAP2 POP POP JUMP JUMPDEST PUSH0 DUP2 SWAP1 POP SWAP2 SWAP1 POP JUMP JUMPDEST PUSH2 0xB2D DUP2 PUSH2 0xB1B JUMP JUMPDEST DUP2 EQ PUSH2 0xB37 JUMPI PUSH0 PUSH0 REVERT JUMPDEST POP JUMP JUMPDEST PUSH0 DUP2 CALLDATALOAD SWAP1 POP PUSH2 0xB48 DUP2 PUSH2 0xB24 JUMP JUMPDEST SWAP3 SWAP2 POP POP JUMP JUMPDEST PUSH0 PUSH0 PUSH1 0x40 DUP4 DUP6 SUB SLT ISZERO PUSH2 0xB64 JUMPI PUSH2 0xB63 PUSH2 0x9D7 JUMP JUMPDEST JUMPDEST PUSH0 DUP4 ADD CALLDATALOAD PUSH8 0xFFFFFFFFFFFFFFFF DUP2 GT ISZERO PUSH2 0xB81 JUMPI PUSH2 0xB80 PUSH2 0x9DB JUMP JUMPDEST JUMPDEST PUSH2 0xB8D DUP6 DUP3 DUP7 ADD PUSH2 0xAEE JUMP JUMPDEST SWAP3 POP POP PUSH1 0x20 PUSH2 0xB9E DUP6 DUP3 DUP7 ADD PUSH2 0xB3A JUMP JUMPDEST SWAP2 POP POP SWAP3 POP SWAP3 SWAP1 POP JUMP JUMPDEST PUSH0 DUP2 MLOAD SWAP1 POP SWAP2 SWAP1 POP JUMP JUMPDEST PUSH0 DUP3 DUP3 MSTORE PUSH1 0x20 DUP3 ADD SWAP1 POP SWAP3 SWAP2 POP POP JUMP JUMPDEST DUP3 DUP2 DUP4 MCOPY PUSH0 DUP4 DUP4 ADD MSTORE POP POP POP JUMP JUMPDEST PUSH0 PUSH2 0xBDA DUP3 PUSH2 0xBA8 JUMP JUMPDEST PUSH2 0xBE4 DUP2 DUP6 PUSH2 0xBB2 JUMP JUMPDEST SWAP4 POP PUSH2 0xBF4 DUP2 DUP6 PUSH1 0x20 DUP7 ADD PUSH2 0xBC2 JUMP JUMPDEST PUSH2 0xBFD DUP2 PUSH2 0x9E7 JUMP JUMPDEST DUP5 ADD SWAP2 POP POP SWAP3 SWAP2 POP POP JUMP JUMPDEST PUSH2 0xC11 DUP2 PUSH2 0xB1B JUMP JUMPDEST DUP3 MSTORE POP POP JUMP JUMPDEST PUSH0 PUSH1 0xA0 DUP3 ADD SWAP1 POP DUP2 DUP2 SUB PUSH0 DUP4 ADD MSTORE PUSH2 0xC2F DUP2 DUP9 PUSH2 0xBD0 JUMP JUMPDEST SWAP1 POP PUSH2 0xC3E PUSH1 0x20 DUP4 ADD DUP8 PUSH2 0xC08 JUMP JUMPDEST DUP2 DUP2 SUB PUSH1 0x40 DUP4 ADD MSTORE PUSH2 0xC50 DUP2 DUP7 PUSH2 0xBD0 JUMP JUMPDEST SWAP1 POP PUSH2 0xC5F PUSH1 0x60 DUP4 ADD DUP6 PUSH2 0xC08 JUMP JUMPDEST DUP2 DUP2 SUB PUSH1 0x80 DUP4 ADD MSTORE PUSH2 0xC71 DUP2 DUP5 PUSH2 0xBD0 JUMP JUMPDEST SWAP1 POP SWAP7 SWAP6 POP POP POP POP POP POP JUMP JUMPDEST PUSH0 PUSH1 0x20 DUP3 DUP5 SUB SLT ISZERO PUSH2 0xC92 JUMPI PUSH2 0xC91 PUSH2 0x9D7 JUMP JUMPDEST JUMPDEST PUSH0 DUP3 ADD CALLDATALOAD PUSH8 0xFFFFFFFFFFFFFFFF DUP2 GT ISZERO PUSH2 0xCAF JUMPI PUSH2 0xCAE PUSH2 0x9DB JUMP JUMPDEST JUMPDEST PUSH2 0xCBB DUP5 DUP3 DUP6 ADD PUSH2 0xAEE JUMP JUMPDEST SWAP2 POP POP SWAP3 SWAP2 POP POP JUMP JUMPDEST PUSH0 DUP2 MLOAD SWAP1 POP SWAP2 SWAP1 POP JUMP JUMPDEST PUSH0 DUP3 DUP3 MSTORE PUSH1 0x20 DUP3 ADD SWAP1 POP SWAP3 SWAP2 POP POP JUMP JUMPDEST PUSH0 DUP2 SWAP1 POP PUSH1 0x20 DUP3 ADD SWAP1 POP SWAP2 SWAP1 POP JUMP JUMPDEST PUSH0 DUP3 DUP3 MSTORE PUSH1 0x20 DUP3 ADD SWAP1 POP SWAP3 SWAP2 POP POP JUMP JUMPDEST PUSH0 PUSH2 0xD07 DUP3 PUSH2 0xBA8 JUMP JUMPDEST PUSH2 0xD11 DUP2 DUP6 PUSH2 0xCED JUMP JUMPDEST SWAP4 POP PUSH2 0xD21 DUP2 DUP6 PUSH1 0x20 DUP7 ADD PUSH2 0xBC2 JUMP JUMPDEST PUSH2 0xD2A DUP2 PUSH2 0x9E7 JUMP JUMPDEST DUP5 ADD SWAP2 POP POP SWAP3 SWAP2 POP POP JUMP JUMPDEST PUSH2 0xD3E DUP2 PUSH2 0xB1B JUMP JUMPDEST DUP3 MSTORE POP POP JUMP JUMPDEST PUSH0 PUSH1 0xA0 DUP4 ADD PUSH0 DUP4 ADD MLOAD DUP5 DUP3 SUB PUSH0 DUP7 ADD MSTORE PUSH2 0xD5E DUP3 DUP3 PUSH2 0xCFD JUMP JUMPDEST SWAP2 POP POP PUSH1 0x20 DUP4 ADD MLOAD PUSH2 0xD73 PUSH1 0x20 DUP7 ADD DUP3 PUSH2 0xD35 JUMP JUMPDEST POP PUSH1 0x40 DUP4 ADD MLOAD DUP5 DUP3 SUB PUSH1 0x40 DUP7 ADD MSTORE PUSH2 0xD8B DUP3 DUP3 PUSH2 0xCFD JUMP JUMPDEST SWAP2 POP POP PUSH1 0x60 DUP4 ADD MLOAD PUSH2 0xDA0 PUSH1 0x60 DUP7 ADD DUP3 PUSH2 0xD35 JUMP JUMPDEST POP PUSH1 0x80 DUP4 ADD MLOAD DUP5 DUP3 SUB PUSH1 0x80 DUP7 ADD MSTORE PUSH2 0xDB8 DUP3 DUP3 PUSH2 0xCFD JUMP JUMPDEST SWAP2 POP POP DUP1 SWAP2 POP POP SWAP3 SWAP2 POP POP JUMP JUMPDEST PUSH0 PUSH2 0xDD0 DUP4 DUP4 PUSH2 0xD44 JUMP JUMPDEST SWAP1 POP SWAP3 SWAP2 POP POP JUMP JUMPDEST PUSH0 PUSH1 0x20 DUP3 ADD SWAP1 POP SWAP2 SWAP1 POP JUMP JUMPDEST PUSH0 PUSH2 0xDEE DUP3 PUSH2 0xCC4 JUMP JUMPDEST PUSH2 0xDF8 DUP2 DUP6 PUSH2 0xCCE JUMP JUMPDEST SWAP4 POP DUP4 PUSH1 0x20 DUP3 MUL DUP6 ADD PUSH2 0xE0A DUP6 PUSH2 0xCDE JUMP JUMPDEST DUP1 PUSH0 JUMPDEST DUP6 DUP2 LT ISZERO PUSH2 0xE45 JUMPI DUP5 DUP5 SUB DUP10 MSTORE DUP2 MLOAD PUSH2 0xE26 DUP6 DUP3 PUSH2 0xDC5 JUMP JUMPDEST SWAP5 POP PUSH2 0xE31 DUP4 PUSH2 0xDD8 JUMP JUMPDEST SWAP3 POP PUSH1 0x20 DUP11 ADD SWAP10 POP POP PUSH1 0x1 DUP2 ADD SWAP1 POP PUSH2 0xE0D JUMP JUMPDEST POP DUP3 SWAP8 POP DUP8 SWAP6 POP POP POP POP POP POP SWAP3 SWAP2 POP POP JUMP JUMPDEST PUSH0 PUSH1 0x20 DUP3 ADD SWAP1 POP DUP2 DUP2 SUB PUSH0 DUP4 ADD MSTORE PUSH2 0xE6F DUP2 DUP5 PUSH2 0xDE4 JUMP JUMPDEST SWAP1 POP SWAP3 SWAP2 POP POP JUMP JUMPDEST PUSH0 PUSH20 0xFFFFFFFFFFFFFFFFFFFFFFFFFFFFFFFFFFFFFFFF DUP3 AND SWAP1 POP SWAP2 SWAP1 POP JUMP JUMPDEST PUSH0 PUSH2 0xEA0 DUP3 PUSH2 0xE77 JUMP JUMPDEST SWAP1 POP SWAP2 SWAP1 POP JUMP JUMPDEST PUSH2 0xEB0 DUP2 PUSH2 0xE96 JUMP JUMPDEST DUP3 MSTORE POP POP JUMP JUMPDEST PUSH0 PUSH1 0x20 DUP3 ADD SWAP1 POP PUSH2 0xEC9 PUSH0 DUP4 ADD DUP5 PUSH2 0xEA7 JUMP JUMPDEST SWAP3 SWAP2 POP POP JUMP JUMPDEST PUSH0 PUSH8 0xFFFFFFFFFFFFFFFF DUP3 GT ISZERO PUSH2 0xEE9 JUMPI PUSH2 0xEE8 PUSH2 0x9F7 JUMP JUMPDEST JUMPDEST PUSH1 0x20 DUP3 MUL SWAP1 POP PUSH1 0x20 DUP2 ADD SWAP1 POP SWAP2 SWAP1 POP JUMP JUMPDEST PUSH0 PUSH0 REVERT JUMPDEST PUSH0 PUSH0 REVERT JUMPDEST PUSH0 PUSH0 REVERT JUMPDEST PUSH0 PUSH1 0xA0 DUP3 DUP5 SUB SLT ISZERO PUSH2 0xF1B JUMPI PUSH2 0xF1A PUSH2 0xEFE JUMP JUMPDEST JUMPDEST PUSH2 0xF25 PUSH1 0xA0 PUSH2 0xA55 JUMP JUMPDEST SWAP1 POP PUSH0 DUP3 ADD CALLDATALOAD PUSH8 0xFFFFFFFFFFFFFFFF DUP2 GT ISZERO PUSH2 0xF44 JUMPI PUSH2 0xF43 PUSH2 0xF02 JUMP JUMPDEST JUMPDEST PUSH2 0xF50 DUP5 DUP3 DUP6 ADD PUSH2 0xAEE JUMP JUMPDEST PUSH0 DUP4 ADD MSTORE POP PUSH1 0x20 PUSH2 0xF63 DUP5 DUP3 DUP6 ADD PUSH2 0xB3A JUMP JUMPDEST PUSH1 0x20 DUP4 ADD MSTORE POP PUSH1 0x40 DUP3 ADD CALLDATALOAD PUSH8 0xFFFFFFFFFFFFFFFF DUP2 GT ISZERO PUSH2 0xF87 JUMPI PUSH2 0xF86 PUSH2 0xF02 JUMP JUMPDEST JUMPDEST PUSH2 0xF93 DUP5 DUP3 DUP6 ADD PUSH2 0xAEE JUMP JUMPDEST PUSH1 0x40 DUP4 ADD MSTORE POP PUSH1 0x60 PUSH2 0xFA7 DUP5 DUP3 DUP6 ADD PUSH2 0xB3A JUMP JUMPDEST PUSH1 0x60 DUP4 ADD MSTORE POP PUSH1 0x80 DUP3 ADD CALLDATALOAD PUSH8 0xFFFFFFFFFFFFFFFF DUP2 GT ISZERO PUSH2 0xFCB JUMPI PUSH2 0xFCA PUSH2 0xF02 JUMP JUMPDEST JUMPDEST PUSH2 0xFD7 DUP5 DUP3 DUP6 ADD PUSH2 0xAEE JUMP JUMPDEST PUSH1 0x80 DUP4 ADD MSTORE POP SWAP3 SWAP2 POP POP JUMP JUMPDEST PUSH0 PUSH2 0xFF5 PUSH2 0xFF0 DUP5 PUSH2 0xECF JUMP JUMPDEST PUSH2 0xA55 JUMP JUMPDEST SWAP1 POP DUP1 DUP4 DUP3 MSTORE PUSH1 0x20 DUP3 ADD SWAP1 POP PUSH1 0x20 DUP5 MUL DUP4 ADD DUP6 DUP2 GT ISZERO PUSH2 0x1018 JUMPI PUSH2 0x1017 PUSH2 0xEFA JUMP JUMPDEST JUMPDEST DUP4 JUMPDEST DUP2 DUP2 LT ISZERO PUSH2 0x105F JUMPI DUP1 CALLDATALOAD PUSH8 0xFFFFFFFFFFFFFFFF DUP2 GT ISZERO PUSH2 0x103D JUMPI PUSH2 0x103C PUSH2 0x9DF JUMP JUMPDEST JUMPDEST DUP1 DUP7 ADD PUSH2 0x104A DUP10 DUP3 PUSH2 0xF06 JUMP JUMPDEST DUP6 MSTORE PUSH1 0x20 DUP6 ADD SWAP5 POP POP POP PUSH1 0x20 DUP2 ADD SWAP1 POP PUSH2 0x101A JUMP JUMPDEST POP POP POP SWAP4 SWAP3 POP POP POP JUMP JUMPDEST PUSH0 DUP3 PUSH1 0x1F DUP4 ADD SLT PUSH2 0x107D JUMPI PUSH2 0x107C PUSH2 0x9DF JUMP JUMPDEST JUMPDEST DUP2 CALLDATALOAD PUSH2 0x108D DUP5 DUP3 PUSH1 0x20 DUP7 ADD PUSH2 0xFE3 JUMP JUMPDEST SWAP2 POP POP SWAP3 SWAP2 POP POP JUMP JUMPDEST PUSH0 PUSH0 PUSH1 0x40 DUP4 DUP6 SUB SLT ISZERO PUSH2 0x10AC JUMPI PUSH2 0x10AB PUSH2 0x9D7 JUMP JUMPDEST JUMPDEST PUSH0 DUP4 ADD CALLDATALOAD PUSH8 0xFFFFFFFFFFFFFFFF DUP2 GT ISZERO PUSH2 0x10C9 JUMPI PUSH2 0x10C8 PUSH2 0x9DB JUMP JUMPDEST JUMPDEST PUSH2 0x10D5 DUP6 DUP3 DUP7 ADD PUSH2 0xAEE JUMP JUMPDEST SWAP3 POP POP PUSH1 0x20 DUP4 ADD CALLDATALOAD PUSH8 0xFFFFFFFFFFFFFFFF DUP2 GT ISZERO PUSH2 0x10F6 JUMPI PUSH2 0x10F5 PUSH2 0x9DB JUMP JUMPDEST JUMPDEST PUSH2 0x1102 DUP6 DUP3 DUP7 ADD PUSH2 0x1069 JUMP JUMPDEST SWAP2 POP POP SWAP3 POP SWAP3 SWAP1 POP JUMP JUMPDEST PUSH2 0x1115 DUP2 PUSH2 0xE96 JUMP JUMPDEST DUP2 EQ PUSH2 0x111F JUMPI PUSH0 PUSH0 REVERT JUMPDEST POP JUMP JUMPDEST PUSH0 DUP2 CALLDATALOAD SWAP1 POP PUSH2 0x1130 DUP2 PUSH2 0x110C JUMP JUMPDEST SWAP3 SWAP2 POP POP JUMP JUMPDEST PUSH0 PUSH1 0x20 DUP3 DUP5 SUB SLT ISZERO PUSH2 0x114B JUMPI PUSH2 0x114A PUSH2 0x9D7 JUMP JUMPDEST JUMPDEST PUSH0 PUSH2 0x1158 DUP5 DUP3 DUP6 ADD PUSH2 0x1122 JUMP JUMPDEST SWAP2 POP POP SWAP3 SWAP2 POP POP JUMP JUMPDEST PUSH32 0x4E487B7100000000000000000000000000000000000000000000000000000000 PUSH0 MSTORE PUSH1 0x22 PUSH1 0x4 MSTORE PUSH1 0x24 PUSH0 REVERT JUMPDEST PUSH0 PUSH1 0x2 DUP3 DIV SWAP1 POP PUSH1 0x1 DUP3 AND DUP1 PUSH2 0x11A5 JUMPI PUSH1 0x7F DUP3 AND SWAP2 POP JUMPDEST PUSH1 0x20 DUP3 LT DUP2 SUB PUSH2 0x11B8 JUMPI PUSH2 0x11B7 PUSH2 0x1161 JUMP JUMPDEST JUMPDEST POP SWAP2 SWAP1 POP JUMP JUMPDEST PUSH0 DUP2 SWAP1 POP SWAP3 SWAP2 POP POP JUMP JUMPDEST PUSH0 PUSH2 0x11D2 DUP3 PUSH2 0xBA8 JUMP JUMPDEST PUSH2 0x11DC DUP2 DUP6 PUSH2 0x11BE JUMP JUMPDEST SWAP4 POP PUSH2 0x11EC DUP2 DUP6 PUSH1 0x20 DUP7 ADD PUSH2 0xBC2 JUMP JUMPDEST DUP1 DUP5 ADD SWAP2 POP POP SWAP3 SWAP2 POP POP JUMP JUMPDEST PUSH0 PUSH2 0x1203 DUP3 DUP5 PUSH2 0x11C8 JUMP JUMPDEST SWAP2 POP DUP2 SWAP1 POP SWAP3 SWAP2 POP POP JUMP JUMPDEST PUSH32 0x4E4F545F4F574E45520000000000000000000000000000000000000000000000 PUSH0 DUP3 ADD MSTORE POP JUMP JUMPDEST PUSH0 PUSH2 0x1242 PUSH1 0x9 DUP4 PUSH2 0xBB2 JUMP JUMPDEST SWAP2 POP PUSH2 0x124D DUP3 PUSH2 0x120E JUMP JUMPDEST PUSH1 0x20 DUP3 ADD SWAP1 POP SWAP2 SWAP1 POP JUMP JUMPDEST PUSH0 PUSH1 0x20 DUP3 ADD SWAP1 POP DUP2 DUP2 SUB PUSH0 DUP4 ADD MSTORE PUSH2 0x126F DUP2 PUSH2 0x1236 JUMP JUMPDEST SWAP1 POP SWAP2 SWAP1 POP JUMP JUMPDEST PUSH32 0x4E487B7100000000000000000000000000000000000000000000000000000000 PUSH0 MSTORE PUSH1 0x32 PUSH1 0x4 MSTORE PUSH1 0x24 PUSH0 REVERT JUMPDEST PUSH0 DUP2 SWAP1 POP DUP2 PUSH0 MSTORE PUSH1 0x20 PUSH0 KECCAK256 SWAP1 POP SWAP2 SWAP1 POP JUMP JUMPDEST PUSH0 PUSH1 0x20 PUSH1 0x1F DUP4 ADD DIV SWAP1 POP SWAP2 SWAP1 POP JUMP JUMPDEST PUSH0 DUP3 DUP3 SHL SWAP1 POP SWAP3 SWAP2 POP POP JUMP JUMPDEST PUSH0 PUSH1 0x8 DUP4 MUL PUSH2 0x12FF PUSH32 0xFFFFFFFFFFFFFFFFFFFFFFFFFFFFFFFFFFFFFFFFFFFFFFFFFFFFFFFFFFFFFFFF DUP3 PUSH2 0x12C4 JUMP JUMPDEST PUSH2 0x1309 DUP7 DUP4 PUSH2 0x12C4 JUMP JUMPDEST SWAP6 POP DUP1 NOT DUP5 AND SWAP4 POP DUP1 DUP7 AND DUP5 OR SWAP3 POP POP POP SWAP4 SWAP3 POP POP POP JUMP JUMPDEST PUSH0 DUP2 SWAP1 POP SWAP2 SWAP1 POP JUMP JUMPDEST PUSH0 PUSH2 0x1344 PUSH2 0x133F PUSH2 0x133A DUP5 PUSH2 0xB1B JUMP JUMPDEST PUSH2 0x1321 JUMP JUMPDEST PUSH2 0xB1B JUMP JUMPDEST SWAP1 POP SWAP2 SWAP1 POP JUMP JUMPDEST PUSH0 DUP2 SWAP1 POP SWAP2 SWAP1 POP JUMP JUMPDEST PUSH2 0x135D DUP4 PUSH2 0x132A JUMP JUMPDEST PUSH2 0x1371 PUSH2 0x1369 DUP3 PUSH2 0x134B JUMP JUMPDEST DUP5 DUP5 SLOAD PUSH2 0x12D0 JUMP JUMPDEST DUP3 SSTORE POP POP POP POP JUMP JUMPDEST PUSH0 PUSH0 SWAP1 POP SWAP1 JUMP JUMPDEST PUSH2 0x1388 PUSH2 0x1379 JUMP JUMPDEST PUSH2 0x1393 DUP2 DUP5 DUP5 PUSH2 0x1354 JUMP JUMPDEST POP POP POP JUMP JUMPDEST JUMPDEST DUP2 DUP2 LT ISZERO PUSH2 0x13B6 JUMPI PUSH2 0x13AB PUSH0 DUP3 PUSH2 0x1380 JUMP JUMPDEST PUSH1 0x1 DUP2 ADD SWAP1 POP PUSH2 0x1399 JUMP JUMPDEST POP POP JUMP JUMPDEST PUSH1 0x1F DUP3 GT ISZERO PUSH2 0x13FB JUMPI PUSH2 0x13CC DUP2 PUSH2 0x12A3 JUMP JUMPDEST PUSH2 0x13D5 DUP5 PUSH2 0x12B5 JUMP JUMPDEST DUP2 ADD PUSH1 0x20 DUP6 LT ISZERO PUSH2 0x13E4 JUMPI DUP2 SWAP1 POP JUMPDEST PUSH2 0x13F8 PUSH2 0x13F0 DUP6 PUSH2 0x12B5 JUMP JUMPDEST DUP4 ADD DUP3 PUSH2 0x1398 JUMP JUMPDEST POP POP JUMPDEST POP POP POP JUMP JUMPDEST PUSH0 DUP3 DUP3 SHR SWAP1 POP SWAP3 SWAP2 POP POP JUMP JUMPDEST PUSH0 PUSH2 0x141B PUSH0 NOT DUP5 PUSH1 0x8 MUL PUSH2 0x1400 JUMP JUMPDEST NOT DUP1 DUP4 AND SWAP2 POP POP SWAP3 SWAP2 POP POP JUMP JUMPDEST PUSH0 PUSH2 0x1433 DUP4 DUP4 PUSH2 0x140C JUMP JUMPDEST SWAP2 POP DUP3 PUSH1 0x2 MUL DUP3 OR SWAP1 POP SWAP3 SWAP2 POP POP JUMP JUMPDEST PUSH2 0x144C DUP3 PUSH2 0xBA8 JUMP JUMPDEST PUSH8 0xFFFFFFFFFFFFFFFF DUP2 GT ISZERO PUSH2 0x1465 JUMPI PUSH2 0x1464 PUSH2 0x9F7 JUMP JUMPDEST JUMPDEST PUSH2 0x146F DUP3 SLOAD PUSH2 0x118E JUMP JUMPDEST PUSH2 0x147A DUP3 DUP3 DUP6 PUSH2 0x13BA JUMP JUMPDEST PUSH0 PUSH1 0x20 SWAP1 POP PUSH1 0x1F DUP4 GT PUSH1 0x1 DUP2 EQ PUSH2 0x14AB JUMPI PUSH0 DUP5 ISZERO PUSH2 0x1499 JUMPI DUP3 DUP8 ADD MLOAD SWAP1 POP JUMPDEST PUSH2 0x14A3 DUP6 DUP3 PUSH2 0x1428 JUMP JUMPDEST DUP7 SSTORE POP PUSH2 0x150A JUMP JUMPDEST PUSH1 0x1F NOT DUP5 AND PUSH2 0x14B9 DUP7 PUSH2 0x12A3 JUMP JUMPDEST PUSH0 JUMPDEST DUP3 DUP2 LT ISZERO PUSH2 0x14E0 JUMPI DUP5 DUP10 ADD MLOAD DUP3 SSTORE PUSH1 0x1 DUP3 ADD SWAP2 POP PUSH1 0x20 DUP6 ADD SWAP5 POP PUSH1 0x20 DUP2 ADD SWAP1 POP PUSH2 0x14BB JUMP JUMPDEST DUP7 DUP4 LT ISZERO PUSH2 0x14FD JUMPI DUP5 DUP10 ADD MLOAD PUSH2 0x14F9 PUSH1 0x1F DUP10 AND DUP3 PUSH2 0x140C JUMP JUMPDEST DUP4 SSTORE POP JUMPDEST PUSH1 0x1 PUSH1 0x2 DUP9 MUL ADD DUP9 SSTORE POP POP POP JUMPDEST POP POP POP POP POP POP JUMP JUMPDEST PUSH0 DUP2 SLOAD SWAP1 POP SWAP2 SWAP1 POP JUMP JUMPDEST PUSH0 DUP2 SWAP1 POP DUP2 PUSH0 MSTORE PUSH1 0x20 PUSH0 KECCAK256 SWAP1 POP SWAP2 SWAP1 POP JUMP JUMPDEST PUSH0 DUP2 SLOAD PUSH2 0x153A DUP2 PUSH2 0x118E JUMP JUMPDEST PUSH2 0x1544 DUP2 DUP7 PUSH2 0xCED JUMP JUMPDEST SWAP5 POP PUSH1 0x1 DUP3 AND PUSH0 DUP2 EQ PUSH2 0x155E JUMPI PUSH1 0x1 DUP2 EQ PUSH2 0x1574 JUMPI PUSH2 0x15A6 JUMP JUMPDEST PUSH1 0xFF NOT DUP4 AND DUP7 MSTORE DUP2 ISZERO ISZERO PUSH1 0x20 MUL DUP7 ADD SWAP4 POP PUSH2 0x15A6 JUMP JUMPDEST PUSH2 0x157D DUP6 PUSH2 0x12A3 JUMP JUMPDEST PUSH0 JUMPDEST DUP4 DUP2 LT ISZERO PUSH2 0x159E JUMPI DUP2 SLOAD DUP2 DUP10 ADD MSTORE PUSH1 0x1 DUP3 ADD SWAP2 POP PUSH1 0x20 DUP2 ADD SWAP1 POP PUSH2 0x157F JUMP JUMPDEST DUP1 DUP9 ADD SWAP6 POP POP POP JUMPDEST POP POP POP SWAP3 SWAP2 POP POP JUMP JUMPDEST PUSH0 DUP2 PUSH0 SHR SWAP1 POP SWAP2 SWAP1 POP JUMP JUMPDEST PUSH0 DUP2 SWAP1 POP SWAP2 SWAP1 POP JUMP JUMPDEST PUSH0 PUSH2 0x15D5 PUSH2 0x15D0 DUP4 PUSH2 0x15AF JUMP JUMPDEST PUSH2 0x15BA JUMP JUMPDEST SWAP1 POP SWAP2 SWAP1 POP JUMP JUMPDEST PUSH0 PUSH1 0xA0 DUP4 ADD PUSH0 PUSH0 DUP5 ADD DUP6 DUP4 SUB PUSH0 DUP8 ADD MSTORE PUSH2 0x15F6 DUP4 DUP3 PUSH2 0x152E JUMP JUMPDEST SWAP3 POP POP PUSH1 0x1 DUP5 ADD SLOAD SWAP1 POP PUSH2 0x1609 DUP2 PUSH2 0x15C3 JUMP JUMPDEST PUSH2 0x1616 PUSH1 0x20 DUP8 ADD DUP3 PUSH2 0xD35 JUMP JUMPDEST POP PUSH1 0x2 DUP5 ADD DUP6 DUP4 SUB PUSH1 0x40 DUP8 ADD MSTORE PUSH2 0x162D DUP4 DUP3 PUSH2 0x152E JUMP JUMPDEST SWAP3 POP POP PUSH1 0x3 DUP5 ADD SLOAD SWAP1 POP PUSH2 0x1640 DUP2 PUSH2 0x15C3 JUMP JUMPDEST PUSH2 0x164D PUSH1 0x60 DUP8 ADD DUP3 PUSH2 0xD35 JUMP JUMPDEST POP PUSH1 0x4 DUP5 ADD DUP6 DUP4 SUB PUSH1 0x80 DUP8 ADD MSTORE PUSH2 0x1664 DUP4 DUP3 PUSH2 0x152E JUMP JUMPDEST SWAP3 POP POP DUP2 SWAP3 POP POP POP SWAP3 SWAP2 POP POP JUMP JUMPDEST PUSH0 PUSH2 0x167D DUP4 DUP4 PUSH2 0x15DC JUMP JUMPDEST SWAP1 POP SWAP3 SWAP2 POP POP JUMP JUMPDEST PUSH0 PUSH1 0x5 DUP3 ADD SWAP1 POP SWAP2 SWAP1 POP JUMP JUMPDEST PUSH0 PUSH2 0x169B DUP3 PUSH2 0x1512 JUMP JUMPDEST PUSH2 0x16A5 DUP2 DUP6 PUSH2 0xCCE JUMP JUMPDEST SWAP4 POP DUP4 PUSH1 0x20 DUP3 MUL DUP6 ADD PUSH2 0x16B7 DUP6 PUSH2 0x151C JUMP JUMPDEST DUP1 PUSH0 JUMPDEST DUP6 DUP2 LT ISZERO PUSH2 0x16F1 JUMPI DUP5 DUP5 SUB DUP10 MSTORE DUP2 PUSH2 0x16D2 DUP6 DUP3 PUSH2 0x1672 JUMP JUMPDEST SWAP5 POP PUSH2 0x16DD DUP4 PUSH2 0x1685 JUMP JUMPDEST SWAP3 POP PUSH1 0x20 DUP11 ADD SWAP10 POP POP PUSH1 0x1 DUP2 ADD SWAP1 POP PUSH2 0x16BA JUMP JUMPDEST POP DUP3 SWAP8 POP DUP8 SWAP6 POP POP POP POP POP POP SWAP3 SWAP2 POP POP JUMP JUMPDEST PUSH0 PUSH1 0x40 DUP3 ADD SWAP1 POP DUP2 DUP2 SUB PUSH0 DUP4 ADD MSTORE PUSH2 0x171B DUP2 DUP6 PUSH2 0xBD0 JUMP JUMPDEST SWAP1 POP DUP2 DUP2 SUB PUSH1 0x20 DUP4 ADD MSTORE PUSH2 0x172F DUP2 DUP5 PUSH2 0x1691 JUMP JUMPDEST SWAP1 POP SWAP4 SWAP3 POP POP POP JUMP JUMPDEST PUSH32 0x494E56414C49445F414444524553530000000000000000000000000000000000 PUSH0 DUP3 ADD MSTORE POP JUMP JUMPDEST PUSH0 PUSH2 0x176C PUSH1 0xF DUP4 PUSH2 0xBB2 JUMP JUMPDEST SWAP2 POP PUSH2 0x1777 DUP3 PUSH2 0x1738 JUMP JUMPDEST PUSH1 0x20 DUP3 ADD SWAP1 POP SWAP2 SWAP1 POP JUMP JUMPDEST PUSH0 PUSH1 0x20 DUP3 ADD SWAP1 POP DUP2 DUP2 SUB PUSH0 DUP4 ADD MSTORE PUSH2 0x1799 DUP2 PUSH2 0x1760 JUMP JUMPDEST SWAP1 POP SWAP2 SWAP1 POP JUMP INVALID LOG2 PUSH5 0x6970667358 0x22 SLT KECCAK256 PUSH11 0x8F2703DCB31285EA6FB932 0x23 SDIV 0x26 POP 0x23 SLOAD AND 0xA5 0xF MSTORE JUMP SWAP6 0xD5 0x4B CALL SLT SWAP16 PUSH19 0xAB0764736F6C634300081E0033000000000000 "
		},
		"gasEstimates": {
			"creation": {
				"codeDepositCost": "1220400",
				"executionCost": "infinite",
				"totalCost": "infinite"
			},
			"external": {
				"fundItemsByDay(string,uint256)": "infinite",
				"getFundItemsByDay(string)": "infinite",
				"owner()": "2529",
				"transferOwnership(address)": "30661",
				"updateFundItemsForDay(string,(string,uint256,string,uint256,string)[])": "infinite"
			},
			"internal": {
				"_initializeData()": "infinite"
			}
		},
		"methodIdentifiers": {
			"fundItemsByDay(string,uint256)": "36a48ee5",
			"getFundItemsByDay(string)": "6ca07056",
			"owner()": "8da5cb5b",
			"transferOwnership(address)": "f2fde38b",
			"updateFundItemsForDay(string,(string,uint256,string,uint256,string)[])": "cfb2749d"
		}
	},
	"abi": [
		{
			"inputs": [],
			"stateMutability": "nonpayable",
			"type": "constructor"
		},
		{
			"anonymous": false,
			"inputs": [
				{
					"indexed": false,
					"internalType": "string",
					"name": "dayKey",
					"type": "string"
				},
				{
					"components": [
						{
							"internalType": "string",
							"name": "name",
							"type": "string"
						},
						{
							"internalType": "uint256",
							"name": "price",
							"type": "uint256"
						},
						{
							"internalType": "string",
							"name": "iconId",
							"type": "string"
						},
						{
							"internalType": "uint256",
							"name": "count",
							"type": "uint256"
						},
						{
							"internalType": "string",
							"name": "avatarColor",
							"type": "string"
						}
					],
					"indexed": false,
					"internalType": "struct DataStructs.FundItem[]",
					"name": "newItems",
					"type": "tuple[]"
				}
			],
			"name": "FundItemsUpdated",
			"type": "event"
		},
		{
			"anonymous": false,
			"inputs": [
				{
					"indexed": true,
					"internalType": "address",
					"name": "previousOwner",
					"type": "address"
				},
				{
					"indexed": true,
					"internalType": "address",
					"name": "newOwner",
					"type": "address"
				}
			],
			"name": "OwnershipTransferred",
			"type": "event"
		},
		{
			"inputs": [
				{
					"internalType": "string",
					"name": "",
					"type": "string"
				},
				{
					"internalType": "uint256",
					"name": "",
					"type": "uint256"
				}
			],
			"name": "fundItemsByDay",
			"outputs": [
				{
					"internalType": "string",
					"name": "name",
					"type": "string"
				},
				{
					"internalType": "uint256",
					"name": "price",
					"type": "uint256"
				},
				{
					"internalType": "string",
					"name": "iconId",
					"type": "string"
				},
				{
					"internalType": "uint256",
					"name": "count",
					"type": "uint256"
				},
				{
					"internalType": "string",
					"name": "avatarColor",
					"type": "string"
				}
			],
			"stateMutability": "view",
			"type": "function"
		},
		{
			"inputs": [
				{
					"internalType": "string",
					"name": "_day",
					"type": "string"
				}
			],
			"name": "getFundItemsByDay",
			"outputs": [
				{
					"components": [
						{
							"internalType": "string",
							"name": "name",
							"type": "string"
						},
						{
							"internalType": "uint256",
							"name": "price",
							"type": "uint256"
						},
						{
							"internalType": "string",
							"name": "iconId",
							"type": "string"
						},
						{
							"internalType": "uint256",
							"name": "count",
							"type": "uint256"
						},
						{
							"internalType": "string",
							"name": "avatarColor",
							"type": "string"
						}
					],
					"internalType": "struct DataStructs.FundItem[]",
					"name": "",
					"type": "tuple[]"
				}
			],
			"stateMutability": "view",
			"type": "function"
		},
		{
			"inputs": [],
			"name": "owner",
			"outputs": [
				{
					"internalType": "address",
					"name": "",
					"type": "address"
				}
			],
			"stateMutability": "view",
			"type": "function"
		},
		{
			"inputs": [
				{
					"internalType": "address",
					"name": "newOwner",
					"type": "address"
				}
			],
			"name": "transferOwnership",
			"outputs": [],
			"stateMutability": "nonpayable",
			"type": "function"
		},
		{
			"inputs": [
				{
					"internalType": "string",
					"name": "_dayKey",
					"type": "string"
				},
				{
					"components": [
						{
							"internalType": "string",
							"name": "name",
							"type": "string"
						},
						{
							"internalType": "uint256",
							"name": "price",
							"type": "uint256"
						},
						{
							"internalType": "string",
							"name": "iconId",
							"type": "string"
						},
						{
							"internalType": "uint256",
							"name": "count",
							"type": "uint256"
						},
						{
							"internalType": "string",
							"name": "avatarColor",
							"type": "string"
						}
					],
					"internalType": "struct DataStructs.FundItem[]",
					"name": "_newItems",
					"type": "tuple[]"
				}
			],
			"name": "updateFundItemsForDay",
			"outputs": [],
			"stateMutability": "nonpayable",
			"type": "function"
		}
	]
}